{
  "_format": "hh-sol-artifact-1",
  "contractName": "DecentralizedBank",
  "sourceName": "contracts/Bank.sol",
  "abi": [
    {
      "anonymous": false,
      "inputs": [
        {
          "indexed": true,
          "internalType": "address",
          "name": "user",
          "type": "address"
        },
        {
          "indexed": false,
          "internalType": "uint256",
          "name": "amount",
          "type": "uint256"
        }
      ],
      "name": "BitcoinCollateralAdded",
      "type": "event"
    },
    {
      "anonymous": false,
      "inputs": [
        {
          "indexed": true,
          "internalType": "address",
          "name": "user",
          "type": "address"
        },
        {
          "indexed": false,
          "internalType": "uint256",
          "name": "amount",
          "type": "uint256"
        }
      ],
      "name": "BitcoinCollateralRemoved",
      "type": "event"
    },
    {
      "anonymous": false,
      "inputs": [
        {
          "indexed": true,
          "internalType": "address",
          "name": "user",
          "type": "address"
        },
        {
          "indexed": false,
          "internalType": "uint256",
          "name": "amount",
          "type": "uint256"
        },
        {
          "indexed": false,
          "internalType": "uint256",
          "name": "newBalance",
          "type": "uint256"
        }
      ],
      "name": "Deposited",
      "type": "event"
    },
    {
      "anonymous": false,
      "inputs": [
        {
          "indexed": true,
          "internalType": "uint256",
          "name": "loanId",
          "type": "uint256"
        },
        {
          "indexed": true,
          "internalType": "address",
          "name": "borrower",
          "type": "address"
        },
        {
          "indexed": false,
          "internalType": "uint256",
          "name": "bitcoinCollateral",
          "type": "uint256"
        },
        {
          "indexed": false,
          "internalType": "uint256",
          "name": "loanAmount",
          "type": "uint256"
        }
      ],
      "name": "LoanCreated",
      "type": "event"
    },
    {
      "anonymous": false,
      "inputs": [
        {
          "indexed": true,
          "internalType": "uint256",
          "name": "loanId",
          "type": "uint256"
        },
        {
          "indexed": true,
          "internalType": "address",
          "name": "borrower",
          "type": "address"
        },
        {
          "indexed": false,
          "internalType": "uint256",
          "name": "collateralSeized",
          "type": "uint256"
        }
      ],
      "name": "LoanLiquidated",
      "type": "event"
    },
    {
      "anonymous": false,
      "inputs": [
        {
          "indexed": true,
          "internalType": "uint256",
          "name": "loanId",
          "type": "uint256"
        },
        {
          "indexed": true,
          "internalType": "address",
          "name": "borrower",
          "type": "address"
        },
        {
          "indexed": false,
          "internalType": "uint256",
          "name": "amount",
          "type": "uint256"
        }
      ],
      "name": "LoanRepaid",
      "type": "event"
    },
    {
      "anonymous": false,
      "inputs": [
        {
          "indexed": true,
          "internalType": "address",
          "name": "from",
          "type": "address"
        },
        {
          "indexed": true,
          "internalType": "address",
          "name": "to",
          "type": "address"
        },
        {
          "indexed": false,
          "internalType": "uint256",
          "name": "amount",
          "type": "uint256"
        }
      ],
      "name": "Transferred",
      "type": "event"
    },
    {
      "anonymous": false,
      "inputs": [
        {
          "indexed": true,
          "internalType": "address",
          "name": "user",
          "type": "address"
        },
        {
          "indexed": false,
          "internalType": "uint256",
          "name": "amount",
          "type": "uint256"
        },
        {
          "indexed": false,
          "internalType": "uint256",
          "name": "newBalance",
          "type": "uint256"
        }
      ],
      "name": "Withdrawn",
      "type": "event"
    },
    {
      "inputs": [],
      "name": "BASE_INTEREST_RATE",
      "outputs": [
        {
          "internalType": "uint256",
          "name": "",
          "type": "uint256"
        }
      ],
      "stateMutability": "view",
      "type": "function"
    },
    {
      "inputs": [],
      "name": "LIQUIDATION_THRESHOLD",
      "outputs": [
        {
          "internalType": "uint256",
          "name": "",
          "type": "uint256"
        }
      ],
      "stateMutability": "view",
      "type": "function"
    },
    {
      "inputs": [],
      "name": "MIN_COLLATERAL_RATIO",
      "outputs": [
        {
          "internalType": "uint256",
          "name": "",
          "type": "uint256"
        }
      ],
      "stateMutability": "view",
      "type": "function"
    },
    {
      "inputs": [
        {
          "internalType": "uint256",
          "name": "bitcoinAmount",
          "type": "uint256"
        }
      ],
      "name": "addBitcoinCollateral",
      "outputs": [],
      "stateMutability": "nonpayable",
      "type": "function"
    },
    {
      "inputs": [
        {
          "internalType": "address",
          "name": "",
          "type": "address"
        }
      ],
      "name": "balances",
      "outputs": [
        {
          "internalType": "uint256",
          "name": "",
          "type": "uint256"
        }
      ],
      "stateMutability": "view",
      "type": "function"
    },
    {
      "inputs": [
        {
          "internalType": "address",
          "name": "",
          "type": "address"
        }
      ],
      "name": "bitcoinPositions",
      "outputs": [
        {
          "internalType": "uint256",
          "name": "totalCollateral",
          "type": "uint256"
        },
        {
          "internalType": "uint256",
          "name": "totalLoans",
          "type": "uint256"
        },
        {
          "internalType": "uint256",
          "name": "liquidationThreshold",
          "type": "uint256"
        }
      ],
      "stateMutability": "view",
      "type": "function"
    },
    {
      "inputs": [
        {
          "internalType": "uint256",
          "name": "bitcoinCollateral",
          "type": "uint256"
        },
        {
          "internalType": "uint256",
          "name": "loanAmount",
          "type": "uint256"
        },
        {
          "internalType": "uint256",
          "name": "loanDuration",
          "type": "uint256"
        }
      ],
      "name": "createLoan",
      "outputs": [],
      "stateMutability": "nonpayable",
      "type": "function"
    },
    {
      "inputs": [],
      "name": "deposit",
      "outputs": [],
      "stateMutability": "payable",
      "type": "function"
    },
    {
      "inputs": [
        {
          "internalType": "address",
          "name": "user",
          "type": "address"
        }
      ],
      "name": "getBalance",
      "outputs": [
        {
          "internalType": "uint256",
          "name": "",
          "type": "uint256"
        }
      ],
      "stateMutability": "view",
      "type": "function"
    },
    {
      "inputs": [
        {
          "internalType": "address",
          "name": "user",
          "type": "address"
        }
      ],
      "name": "getBitcoinPosition",
      "outputs": [
        {
          "components": [
            {
              "internalType": "uint256",
              "name": "totalCollateral",
              "type": "uint256"
            },
            {
              "internalType": "uint256",
              "name": "totalLoans",
              "type": "uint256"
            },
            {
              "internalType": "uint256",
              "name": "liquidationThreshold",
              "type": "uint256"
            }
          ],
          "internalType": "struct DecentralizedBank.BitcoinPosition",
          "name": "",
          "type": "tuple"
        }
      ],
      "stateMutability": "view",
      "type": "function"
    },
    {
      "inputs": [
        {
          "internalType": "uint256",
          "name": "loanId",
          "type": "uint256"
        }
      ],
      "name": "getCollateralRatio",
      "outputs": [
        {
          "internalType": "uint256",
          "name": "",
          "type": "uint256"
        }
      ],
      "stateMutability": "view",
      "type": "function"
    },
    {
      "inputs": [
        {
          "internalType": "address",
          "name": "user",
          "type": "address"
        }
      ],
      "name": "getHistory",
      "outputs": [
        {
          "components": [
            {
              "internalType": "enum DecentralizedBank.TxType",
              "name": "txType",
              "type": "uint8"
            },
            {
              "internalType": "address",
              "name": "counterparty",
              "type": "address"
            },
            {
              "internalType": "uint256",
              "name": "amount",
              "type": "uint256"
            },
            {
              "internalType": "uint256",
              "name": "timestamp",
              "type": "uint256"
            },
            {
              "internalType": "string",
              "name": "description",
              "type": "string"
            }
          ],
          "internalType": "struct DecentralizedBank.Transaction[]",
          "name": "",
          "type": "tuple[]"
        }
      ],
      "stateMutability": "view",
      "type": "function"
    },
    {
      "inputs": [
        {
          "internalType": "uint256",
          "name": "loanId",
          "type": "uint256"
        }
      ],
      "name": "getLoan",
      "outputs": [
        {
          "components": [
            {
              "internalType": "uint256",
              "name": "id",
              "type": "uint256"
            },
            {
              "internalType": "address",
              "name": "borrower",
              "type": "address"
            },
            {
              "internalType": "uint256",
              "name": "bitcoinCollateral",
              "type": "uint256"
            },
            {
              "internalType": "uint256",
              "name": "loanAmount",
              "type": "uint256"
            },
            {
              "internalType": "uint256",
              "name": "interestRate",
              "type": "uint256"
            },
            {
              "internalType": "uint256",
              "name": "startTime",
              "type": "uint256"
            },
            {
              "internalType": "uint256",
              "name": "dueDate",
              "type": "uint256"
            },
            {
              "internalType": "bool",
              "name": "isActive",
              "type": "bool"
            },
            {
              "internalType": "bool",
              "name": "isLiquidated",
              "type": "bool"
            }
          ],
          "internalType": "struct DecentralizedBank.Loan",
          "name": "",
          "type": "tuple"
        }
      ],
      "stateMutability": "view",
      "type": "function"
    },
    {
      "inputs": [],
      "name": "getTotalBitcoinCollateral",
      "outputs": [
        {
          "internalType": "uint256",
          "name": "",
          "type": "uint256"
        }
      ],
      "stateMutability": "view",
      "type": "function"
    },
    {
      "inputs": [],
      "name": "getTotalLoans",
      "outputs": [
        {
          "internalType": "uint256",
          "name": "",
          "type": "uint256"
        }
      ],
      "stateMutability": "view",
      "type": "function"
    },
    {
      "inputs": [
        {
          "internalType": "address",
          "name": "user",
          "type": "address"
        }
      ],
      "name": "getUserLoans",
      "outputs": [
        {
          "internalType": "uint256[]",
          "name": "",
          "type": "uint256[]"
        }
      ],
      "stateMutability": "view",
      "type": "function"
    },
    {
      "inputs": [
        {
          "internalType": "address",
          "name": "",
          "type": "address"
        },
        {
          "internalType": "uint256",
          "name": "",
          "type": "uint256"
        }
      ],
      "name": "history",
      "outputs": [
        {
          "internalType": "enum DecentralizedBank.TxType",
          "name": "txType",
          "type": "uint8"
        },
        {
          "internalType": "address",
          "name": "counterparty",
          "type": "address"
        },
        {
          "internalType": "uint256",
          "name": "amount",
          "type": "uint256"
        },
        {
          "internalType": "uint256",
          "name": "timestamp",
          "type": "uint256"
        },
        {
          "internalType": "string",
          "name": "description",
          "type": "string"
        }
      ],
      "stateMutability": "view",
      "type": "function"
    },
    {
      "inputs": [
        {
          "internalType": "uint256",
          "name": "loanId",
          "type": "uint256"
        }
      ],
      "name": "liquidateLoan",
      "outputs": [],
      "stateMutability": "nonpayable",
      "type": "function"
    },
    {
      "inputs": [
        {
          "internalType": "uint256",
          "name": "",
          "type": "uint256"
        }
      ],
      "name": "loans",
      "outputs": [
        {
          "internalType": "uint256",
          "name": "id",
          "type": "uint256"
        },
        {
          "internalType": "address",
          "name": "borrower",
          "type": "address"
        },
        {
          "internalType": "uint256",
          "name": "bitcoinCollateral",
          "type": "uint256"
        },
        {
          "internalType": "uint256",
          "name": "loanAmount",
          "type": "uint256"
        },
        {
          "internalType": "uint256",
          "name": "interestRate",
          "type": "uint256"
        },
        {
          "internalType": "uint256",
          "name": "startTime",
          "type": "uint256"
        },
        {
          "internalType": "uint256",
          "name": "dueDate",
          "type": "uint256"
        },
        {
          "internalType": "bool",
          "name": "isActive",
          "type": "bool"
        },
        {
          "internalType": "bool",
          "name": "isLiquidated",
          "type": "bool"
        }
      ],
      "stateMutability": "view",
      "type": "function"
    },
    {
      "inputs": [
        {
          "internalType": "uint256",
          "name": "bitcoinAmount",
          "type": "uint256"
        }
      ],
      "name": "removeBitcoinCollateral",
      "outputs": [],
      "stateMutability": "nonpayable",
      "type": "function"
    },
    {
      "inputs": [
        {
          "internalType": "uint256",
          "name": "loanId",
          "type": "uint256"
        }
      ],
      "name": "repayLoan",
      "outputs": [],
      "stateMutability": "payable",
      "type": "function"
    },
    {
      "inputs": [],
      "name": "totalBitcoinCollateral",
      "outputs": [
        {
          "internalType": "uint256",
          "name": "",
          "type": "uint256"
        }
      ],
      "stateMutability": "view",
      "type": "function"
    },
    {
      "inputs": [],
      "name": "totalLoans",
      "outputs": [
        {
          "internalType": "uint256",
          "name": "",
          "type": "uint256"
        }
      ],
      "stateMutability": "view",
      "type": "function"
    },
    {
      "inputs": [
        {
          "internalType": "address",
          "name": "to",
          "type": "address"
        },
        {
          "internalType": "uint256",
          "name": "amount",
          "type": "uint256"
        }
      ],
      "name": "transfer",
      "outputs": [],
      "stateMutability": "nonpayable",
      "type": "function"
    },
    {
      "inputs": [
        {
          "internalType": "address",
          "name": "",
          "type": "address"
        },
        {
          "internalType": "uint256",
          "name": "",
          "type": "uint256"
        }
      ],
      "name": "userLoans",
      "outputs": [
        {
          "internalType": "uint256",
          "name": "",
          "type": "uint256"
        }
      ],
      "stateMutability": "view",
      "type": "function"
    },
    {
      "inputs": [
        {
          "internalType": "uint256",
          "name": "amount",
          "type": "uint256"
        }
      ],
      "name": "withdraw",
      "outputs": [],
      "stateMutability": "nonpayable",
      "type": "function"
    }
  ],
  "bytecode": "0x6080604052348015600f57600080fd5b506147a78061001f6000396000f3fe6080604052600436106101815760003560e01c8063833be5d5116100d1578063ccdd9f5d1161008a578063d8bad5bd11610064578063d8bad5bd14610594578063e1ec3c68146105d1578063e7c63b7b14610616578063f8b2cb4f1461063f57610181565b8063ccdd9f5d14610524578063d0e30db01461054d578063d7d0563d1461055757610181565b8063833be5d514610435578063904b513b1461046057806390a8ae9b14610489578063a9059cbb146104b4578063ab7b1c89146104dd578063cc952b57146104f957610181565b80634a1cb9f71161013e5780637718f4ec116101185780637718f4ec146103615780637a9fffb7146103a257806380396811146103cd57806380e1f2271461040a57610181565b80634a1cb9f7146102bc578063504006ca146102e55780635f8b1fd51461032257610181565b806302bf321f146101865780630d8cb2ff146101c357806323b24385146101ee57806327e235e3146102195780632d310a37146102565780632e1a7d4d14610293575b600080fd5b34801561019257600080fd5b506101ad60048036038101906101a89190612ff8565b61067c565b6040516101ba91906130ed565b60405180910390f35b3480156101cf57600080fd5b506101d8610713565b6040516101e5919061311e565b60405180910390f35b3480156101fa57600080fd5b50610203610719565b604051610210919061311e565b60405180910390f35b34801561022557600080fd5b50610240600480360381019061023b9190612ff8565b610723565b60405161024d919061311e565b60405180910390f35b34801561026257600080fd5b5061027d60048036038101906102789190613165565b61073b565b60405161028a919061311e565b60405180910390f35b34801561029f57600080fd5b506102ba60048036038101906102b59190613165565b6107c6565b005b3480156102c857600080fd5b506102e360048036038101906102de9190613165565b610b48565b005b3480156102f157600080fd5b5061030c60048036038101906103079190613165565b610e72565b6040516103199190613273565b60405180910390f35b34801561032e57600080fd5b5061034960048036038101906103449190612ff8565b610f68565b6040516103589392919061328f565b60405180910390f35b34801561036d57600080fd5b50610388600480360381019061038391906132c6565b610f92565b60405161039995949392919061341c565b60405180910390f35b3480156103ae57600080fd5b506103b761109a565b6040516103c4919061311e565b60405180910390f35b3480156103d957600080fd5b506103f460048036038101906103ef9190612ff8565b61109f565b6040516104019190613607565b60405180910390f35b34801561041657600080fd5b5061041f611274565b60405161042c919061311e565b60405180910390f35b34801561044157600080fd5b5061044a61127a565b604051610457919061311e565b60405180910390f35b34801561046c57600080fd5b5061048760048036038101906104829190613629565b611284565b005b34801561049557600080fd5b5061049e611889565b6040516104ab919061311e565b60405180910390f35b3480156104c057600080fd5b506104db60048036038101906104d691906132c6565b61188e565b005b6104f760048036038101906104f29190613165565b611de6565b005b34801561050557600080fd5b5061050e612270565b60405161051b919061311e565b60405180910390f35b34801561053057600080fd5b5061054b60048036038101906105469190613165565b612276565b005b6105556126b8565b005b34801561056357600080fd5b5061057e60048036038101906105799190612ff8565b612971565b60405161058b91906136be565b60405180910390f35b3480156105a057600080fd5b506105bb60048036038101906105b691906132c6565b6129e8565b6040516105c8919061311e565b60405180910390f35b3480156105dd57600080fd5b506105f860048036038101906105f39190613165565b612a19565b60405161060d999897969594939291906136e8565b60405180910390f35b34801561062257600080fd5b5061063d60048036038101906106389190613165565b612aa1565b005b34801561064b57600080fd5b5061066660048036038101906106619190612ff8565b612d3e565b604051610673919061311e565b60405180910390f35b6060600460008373ffffffffffffffffffffffffffffffffffffffff1673ffffffffffffffffffffffffffffffffffffffff16815260200190815260200160002080548060200260200160405190810160405280929190818152602001828054801561070757602002820191906000526020600020905b8154815260200190600101908083116106f3575b50505050509050919050565b6101f481565b6000600654905090565b60006020528060005260406000206000915090505481565b60008060036000848152602001908152602001600020905060008160030154036107695760009150506107c1565b60006305f5e100670de0b6b3a76400006032846002015461078a91906137a4565b61079491906137a4565b61079e9190613815565b905081600301546064826107b291906137a4565b6107bc9190613815565b925050505b919050565b60008111610809576040517f08c379a000000000000000000000000000000000000000000000000000000000815260040161080090613892565b60405180910390fd5b806000803373ffffffffffffffffffffffffffffffffffffffff1673ffffffffffffffffffffffffffffffffffffffff16815260200190815260200160002054101561088a576040517f08c379a0000000000000000000000000000000000000000000000000000000008152600401610881906138fe565b60405180910390fd5b806000803373ffffffffffffffffffffffffffffffffffffffff1673ffffffffffffffffffffffffffffffffffffffff16815260200190815260200160002060008282546108d8919061391e565b92505081905550600160003373ffffffffffffffffffffffffffffffffffffffff1673ffffffffffffffffffffffffffffffffffffffff1681526020019081526020016000206040518060a001604052806001600881111561093d5761093c613306565b5b8152602001600073ffffffffffffffffffffffffffffffffffffffff1681526020018381526020014281526020016040518060400160405280600e81526020017f455448205769746864726177616c000000000000000000000000000000000000815250815250908060018154018082558091505060019003906000526020600020906004020160009091909190915060008201518160000160006101000a81548160ff021916908360088111156109f8576109f7613306565b5b021790555060208201518160000160016101000a81548173ffffffffffffffffffffffffffffffffffffffff021916908373ffffffffffffffffffffffffffffffffffffffff16021790555060408201518160010155606082015181600201556080820151816003019081610a6d9190613b8d565b5050503373ffffffffffffffffffffffffffffffffffffffff166108fc829081150290604051600060405180830381858888f19350505050158015610ab6573d6000803e3d6000fd5b503373ffffffffffffffffffffffffffffffffffffffff167f92ccf450a286a957af52509bc1c9939d1a6a481783e142e41e2499f0bb66ebc6826000803373ffffffffffffffffffffffffffffffffffffffff1673ffffffffffffffffffffffffffffffffffffffff16815260200190815260200160002054604051610b3d929190613c5f565b60405180910390a250565b60008111610b8b576040517f08c379a0000000000000000000000000000000000000000000000000000000008152600401610b8290613cd4565b60405180910390fd5b6000600260003373ffffffffffffffffffffffffffffffffffffffff1673ffffffffffffffffffffffffffffffffffffffff16815260200190815260200160002090508181600001541015610c15576040517f08c379a0000000000000000000000000000000000000000000000000000000008152600401610c0c90613d40565b60405180910390fd5b6000816001015414610c5c576040517f08c379a0000000000000000000000000000000000000000000000000000000008152600401610c5390613dd2565b60405180910390fd5b81816000016000828254610c70919061391e565b925050819055508160066000828254610c89919061391e565b92505081905550600160003373ffffffffffffffffffffffffffffffffffffffff1673ffffffffffffffffffffffffffffffffffffffff1681526020019081526020016000206040518060a00160405280600880811115610ced57610cec613306565b5b8152602001600073ffffffffffffffffffffffffffffffffffffffff1681526020018481526020014281526020016040518060400160405280601a81526020017f426974636f696e20436f6c6c61746572616c2052656d6f766564000000000000815250815250908060018154018082558091505060019003906000526020600020906004020160009091909190915060008201518160000160006101000a81548160ff02191690836008811115610da857610da7613306565b5b021790555060208201518160000160016101000a81548173ffffffffffffffffffffffffffffffffffffffff021916908373ffffffffffffffffffffffffffffffffffffffff16021790555060408201518160010155606082015181600201556080820151816003019081610e1d9190613b8d565b5050503373ffffffffffffffffffffffffffffffffffffffff167f4b0ec4b0b40af5ba45498a8493dd48c4e01e5779ed14427be9ca72c33aec480683604051610e66919061311e565b60405180910390a25050565b610e7a612f0e565b6003600083815260200190815260200160002060405180610120016040529081600082015481526020016001820160009054906101000a900473ffffffffffffffffffffffffffffffffffffffff1673ffffffffffffffffffffffffffffffffffffffff1673ffffffffffffffffffffffffffffffffffffffff16815260200160028201548152602001600382015481526020016004820154815260200160058201548152602001600682015481526020016007820160009054906101000a900460ff161515151581526020016007820160019054906101000a900460ff1615151515815250509050919050565b60026020528060005260406000206000915090508060000154908060010154908060020154905083565b60016020528160005260406000208181548110610fae57600080fd5b9060005260206000209060040201600091509150508060000160009054906101000a900460ff16908060000160019054906101000a900473ffffffffffffffffffffffffffffffffffffffff1690806001015490806002015490806003018054611017906139b0565b80601f0160208091040260200160405190810160405280929190818152602001828054611043906139b0565b80156110905780601f1061106557610100808354040283529160200191611090565b820191906000526020600020905b81548152906001019060200180831161107357829003601f168201915b5050505050905085565b60c881565b6060600160008373ffffffffffffffffffffffffffffffffffffffff1673ffffffffffffffffffffffffffffffffffffffff168152602001908152602001600020805480602002602001604051908101604052809291908181526020016000905b8282101561126957838290600052602060002090600402016040518060a00160405290816000820160009054906101000a900460ff16600881111561114857611147613306565b5b600881111561115a57611159613306565b5b81526020016000820160019054906101000a900473ffffffffffffffffffffffffffffffffffffffff1673ffffffffffffffffffffffffffffffffffffffff1673ffffffffffffffffffffffffffffffffffffffff16815260200160018201548152602001600282015481526020016003820180546111d8906139b0565b80601f0160208091040260200160405190810160405280929190818152602001828054611204906139b0565b80156112515780601f1061122657610100808354040283529160200191611251565b820191906000526020600020905b81548152906001019060200180831161123457829003601f168201915b50505050508152505081526020019060010190611100565b505050509050919050565b60065481565b6000600554905090565b600083116112c7576040517f08c379a00000000000000000000000000000000000000000000000000000000081526004016112be90613e3e565b60405180910390fd5b6000821161130a576040517f08c379a000000000000000000000000000000000000000000000000000000000815260040161130190613eaa565b60405180910390fd5b6000811161134d576040517f08c379a000000000000000000000000000000000000000000000000000000000815260040161134490613f16565b60405180910390fd5b6000600260003373ffffffffffffffffffffffffffffffffffffffff1673ffffffffffffffffffffffffffffffffffffffff168152602001908152602001600020905083816000015410156113d7576040517f08c379a00000000000000000000000000000000000000000000000000000000081526004016113ce90613f82565b60405180910390fd5b60006305f5e100670de0b6b3a76400006032876113f491906137a4565b6113fe91906137a4565b6114089190613815565b905060008460648361141a91906137a4565b6114249190613815565b905060c881101561146a576040517f08c379a000000000000000000000000000000000000000000000000000000000815260040161146190613fee565b60405180910390fd5b60006005600081548092919061147f9061400e565b9190505590506040518061012001604052808281526020013373ffffffffffffffffffffffffffffffffffffffff1681526020018881526020018781526020016101f4815260200142815260200162015180876114dc91906137a4565b426114e79190614056565b815260200160011515815260200160001515815250600360008381526020019081526020016000206000820151816000015560208201518160010160006101000a81548173ffffffffffffffffffffffffffffffffffffffff021916908373ffffffffffffffffffffffffffffffffffffffff16021790555060408201518160020155606082015181600301556080820151816004015560a0820151816005015560c0820151816006015560e08201518160070160006101000a81548160ff0219169083151502179055506101008201518160070160016101000a81548160ff021916908315150217905550905050858460010160008282546115ea9190614056565b92505081905550600460003373ffffffffffffffffffffffffffffffffffffffff1673ffffffffffffffffffffffffffffffffffffffff168152602001908152602001600020819080600181540180825580915050600190039060005260206000200160009091909190915055856000803373ffffffffffffffffffffffffffffffffffffffff1673ffffffffffffffffffffffffffffffffffffffff16815260200190815260200160002060008282546116a59190614056565b92505081905550600160003373ffffffffffffffffffffffffffffffffffffffff1673ffffffffffffffffffffffffffffffffffffffff1681526020019081526020016000206040518060a001604052806004600881111561170a57611709613306565b5b8152602001600073ffffffffffffffffffffffffffffffffffffffff16815260200188815260200142815260200161174184612d86565b6040516020016117519190614112565b604051602081830303815290604052815250908060018154018082558091505060019003906000526020600020906004020160009091909190915060008201518160000160006101000a81548160ff021916908360088111156117b7576117b6613306565b5b021790555060208201518160000160016101000a81548173ffffffffffffffffffffffffffffffffffffffff021916908373ffffffffffffffffffffffffffffffffffffffff1602179055506040820151816001015560608201518160020155608082015181600301908161182c9190613b8d565b5050503373ffffffffffffffffffffffffffffffffffffffff16817f3373919ad665425d2cddb4072830e5935b6ee308440fa99b23383648da473bc08989604051611878929190613c5f565b60405180910390a350505050505050565b609681565b600073ffffffffffffffffffffffffffffffffffffffff168273ffffffffffffffffffffffffffffffffffffffff16036118fd576040517f08c379a00000000000000000000000000000000000000000000000000000000081526004016118f490614180565b60405180910390fd5b60008111611940576040517f08c379a0000000000000000000000000000000000000000000000000000000008152600401611937906141ec565b60405180910390fd5b806000803373ffffffffffffffffffffffffffffffffffffffff1673ffffffffffffffffffffffffffffffffffffffff1681526020019081526020016000205410156119c1576040517f08c379a00000000000000000000000000000000000000000000000000000000081526004016119b8906138fe565b60405180910390fd5b806000803373ffffffffffffffffffffffffffffffffffffffff1673ffffffffffffffffffffffffffffffffffffffff1681526020019081526020016000206000828254611a0f919061391e565b925050819055508173ffffffffffffffffffffffffffffffffffffffff166108fc829081150290604051600060405180830381858888f19350505050158015611a5c573d6000803e3d6000fd5b50600160003373ffffffffffffffffffffffffffffffffffffffff1673ffffffffffffffffffffffffffffffffffffffff1681526020019081526020016000206040518060a0016040528060026008811115611abb57611aba613306565b5b81526020018473ffffffffffffffffffffffffffffffffffffffff1681526020018381526020014281526020016040518060400160405280601081526020017f455448205472616e73666572204f757400000000000000000000000000000000815250815250908060018154018082558091505060019003906000526020600020906004020160009091909190915060008201518160000160006101000a81548160ff02191690836008811115611b7557611b74613306565b5b021790555060208201518160000160016101000a81548173ffffffffffffffffffffffffffffffffffffffff021916908373ffffffffffffffffffffffffffffffffffffffff16021790555060408201518160010155606082015181600201556080820151816003019081611bea9190613b8d565b505050600160008373ffffffffffffffffffffffffffffffffffffffff1673ffffffffffffffffffffffffffffffffffffffff1681526020019081526020016000206040518060a0016040528060036008811115611c4b57611c4a613306565b5b81526020013373ffffffffffffffffffffffffffffffffffffffff1681526020018381526020014281526020016040518060400160405280600f81526020017f455448205472616e7366657220496e0000000000000000000000000000000000815250815250908060018154018082558091505060019003906000526020600020906004020160009091909190915060008201518160000160006101000a81548160ff02191690836008811115611d0557611d04613306565b5b021790555060208201518160000160016101000a81548173ffffffffffffffffffffffffffffffffffffffff021916908373ffffffffffffffffffffffffffffffffffffffff16021790555060408201518160010155606082015181600201556080820151816003019081611d7a9190613b8d565b5050508173ffffffffffffffffffffffffffffffffffffffff163373ffffffffffffffffffffffffffffffffffffffff167fd1ba4ac2e2a11b5101f6cb4d978f514a155b421e8ec396d2d9abaf0bb02917ee83604051611dda919061311e565b60405180910390a35050565b60006003600083815260200190815260200160002090503373ffffffffffffffffffffffffffffffffffffffff168160010160009054906101000a900473ffffffffffffffffffffffffffffffffffffffff1673ffffffffffffffffffffffffffffffffffffffff1614611e8f576040517f08c379a0000000000000000000000000000000000000000000000000000000008152600401611e8690614258565b60405180910390fd5b8060070160009054906101000a900460ff16611ee0576040517f08c379a0000000000000000000000000000000000000000000000000000000008152600401611ed7906142c4565b60405180910390fd5b8060070160019054906101000a900460ff1615611f32576040517f08c379a0000000000000000000000000000000000000000000000000000000008152600401611f2990614330565b60405180910390fd5b8060030154341015611f79576040517f08c379a0000000000000000000000000000000000000000000000000000000008152600401611f709061439c565b60405180910390fd5b6000816005015442611f8b919061391e565b9050600064496cebb8008284600401548560030154611faa91906137a4565b611fb491906137a4565b611fbe9190613815565b90506000818460030154611fd29190614056565b905080341015612017576040517f08c379a000000000000000000000000000000000000000000000000000000000815260040161200e9061442e565b60405180910390fd5b60008460070160006101000a81548160ff0219169083151502179055506000600260003373ffffffffffffffffffffffffffffffffffffffff1673ffffffffffffffffffffffffffffffffffffffff1681526020019081526020016000209050846003015481600101600082825461208f919061391e565b92505081905550600160003373ffffffffffffffffffffffffffffffffffffffff1673ffffffffffffffffffffffffffffffffffffffff1681526020019081526020016000206040518060a00160405280600560088111156120f4576120f3613306565b5b8152602001600073ffffffffffffffffffffffffffffffffffffffff16815260200184815260200142815260200161212b89612d86565b60405160200161213b919061449a565b604051602081830303815290604052815250908060018154018082558091505060019003906000526020600020906004020160009091909190915060008201518160000160006101000a81548160ff021916908360088111156121a1576121a0613306565b5b021790555060208201518160000160016101000a81548173ffffffffffffffffffffffffffffffffffffffff021916908373ffffffffffffffffffffffffffffffffffffffff160217905550604082015181600101556060820151816002015560808201518160030190816122169190613b8d565b5050503373ffffffffffffffffffffffffffffffffffffffff16867f512d3e65b3e58c2187bb1872aa435dba5bd09c1c03823ba56ab70aac411e4a2184604051612260919061311e565b60405180910390a3505050505050565b60055481565b60006003600083815260200190815260200160002090508060070160009054906101000a900460ff166122de576040517f08c379a00000000000000000000000000000000000000000000000000000000081526004016122d5906142c4565b60405180910390fd5b8060070160019054906101000a900460ff1615612330576040517f08c379a000000000000000000000000000000000000000000000000000000000815260040161232790614508565b60405180910390fd5b6000816006015442119050600060966123488561073b565b10905081806123545750805b612393576040517f08c379a000000000000000000000000000000000000000000000000000000000815260040161238a9061459a565b60405180910390fd5b60018360070160016101000a81548160ff02191690831515021790555060008360070160006101000a81548160ff0219169083151502179055506000600260008560010160009054906101000a900473ffffffffffffffffffffffffffffffffffffffff1673ffffffffffffffffffffffffffffffffffffffff1673ffffffffffffffffffffffffffffffffffffffff1681526020019081526020016000209050836002015481600001600082825461244c919061391e565b92505081905550836003015481600101600082825461246b919061391e565b92505081905550836002015460066000828254612488919061391e565b92505081905550600160008560010160009054906101000a900473ffffffffffffffffffffffffffffffffffffffff1673ffffffffffffffffffffffffffffffffffffffff1673ffffffffffffffffffffffffffffffffffffffff1681526020019081526020016000206040518060a001604052806006600881111561251157612510613306565b5b8152602001600073ffffffffffffffffffffffffffffffffffffffff1681526020018660020154815260200142815260200161254c88612d86565b60405160200161255c9190614606565b604051602081830303815290604052815250908060018154018082558091505060019003906000526020600020906004020160009091909190915060008201518160000160006101000a81548160ff021916908360088111156125c2576125c1613306565b5b021790555060208201518160000160016101000a81548173ffffffffffffffffffffffffffffffffffffffff021916908373ffffffffffffffffffffffffffffffffffffffff160217905550604082015181600101556060820151816002015560808201518160030190816126379190613b8d565b5050508360010160009054906101000a900473ffffffffffffffffffffffffffffffffffffffff1673ffffffffffffffffffffffffffffffffffffffff16857f0256bdf47e9aff5784070d6cab332d79f81fc6b8c8ed875565982a423a389e3a86600201546040516126a9919061311e565b60405180910390a35050505050565b600034116126fb576040517f08c379a00000000000000000000000000000000000000000000000000000000081526004016126f290614674565b60405180910390fd5b346000803373ffffffffffffffffffffffffffffffffffffffff1673ffffffffffffffffffffffffffffffffffffffff16815260200190815260200160002060008282546127499190614056565b92505081905550600160003373ffffffffffffffffffffffffffffffffffffffff1673ffffffffffffffffffffffffffffffffffffffff1681526020019081526020016000206040518060a00160405280600060088111156127ae576127ad613306565b5b8152602001600073ffffffffffffffffffffffffffffffffffffffff1681526020013481526020014281526020016040518060400160405280600b81526020017f455448204465706f736974000000000000000000000000000000000000000000815250815250908060018154018082558091505060019003906000526020600020906004020160009091909190915060008201518160000160006101000a81548160ff0219169083600881111561286957612868613306565b5b021790555060208201518160000160016101000a81548173ffffffffffffffffffffffffffffffffffffffff021916908373ffffffffffffffffffffffffffffffffffffffff160217905550604082015181600101556060820151816002015560808201518160030190816128de9190613b8d565b5050503373ffffffffffffffffffffffffffffffffffffffff167f73a19dd210f1a7f902193214c0ee91dd35ee5b4d920cba8d519eca65a7b488ca346000803373ffffffffffffffffffffffffffffffffffffffff1673ffffffffffffffffffffffffffffffffffffffff16815260200190815260200160002054604051612967929190613c5f565b60405180910390a2565b612979612f74565b600260008373ffffffffffffffffffffffffffffffffffffffff1673ffffffffffffffffffffffffffffffffffffffff16815260200190815260200160002060405180606001604052908160008201548152602001600182015481526020016002820154815250509050919050565b60046020528160005260406000208181548110612a0457600080fd5b90600052602060002001600091509150505481565b60036020528060005260406000206000915090508060000154908060010160009054906101000a900473ffffffffffffffffffffffffffffffffffffffff16908060020154908060030154908060040154908060050154908060060154908060070160009054906101000a900460ff16908060070160019054906101000a900460ff16905089565b60008111612ae4576040517f08c379a0000000000000000000000000000000000000000000000000000000008152600401612adb906146e0565b60405180910390fd5b6000600260003373ffffffffffffffffffffffffffffffffffffffff1673ffffffffffffffffffffffffffffffffffffffff168152602001908152602001600020905081816000016000828254612b3b9190614056565b925050819055508160066000828254612b549190614056565b92505081905550600160003373ffffffffffffffffffffffffffffffffffffffff1673ffffffffffffffffffffffffffffffffffffffff1681526020019081526020016000206040518060a0016040528060076008811115612bb957612bb8613306565b5b8152602001600073ffffffffffffffffffffffffffffffffffffffff1681526020018481526020014281526020016040518060400160405280601881526020017f426974636f696e20436f6c6c61746572616c2041646465640000000000000000815250815250908060018154018082558091505060019003906000526020600020906004020160009091909190915060008201518160000160006101000a81548160ff02191690836008811115612c7457612c73613306565b5b021790555060208201518160000160016101000a81548173ffffffffffffffffffffffffffffffffffffffff021916908373ffffffffffffffffffffffffffffffffffffffff16021790555060408201518160010155606082015181600201556080820151816003019081612ce99190613b8d565b5050503373ffffffffffffffffffffffffffffffffffffffff167fb34ac71269cf4c90111a8f7e5f57d30b4e42dacc347a0a8f21efea0ed4c0c8cf83604051612d32919061311e565b60405180910390a25050565b60008060008373ffffffffffffffffffffffffffffffffffffffff1673ffffffffffffffffffffffffffffffffffffffff168152602001908152602001600020549050919050565b606060008203612dcd576040518060400160405280600181526020017f30000000000000000000000000000000000000000000000000000000000000008152509050612f09565b600082905060005b60008214612dff578080612de89061400e565b915050600a82612df89190613815565b9150612dd5565b60008167ffffffffffffffff811115612e1b57612e1a613952565b5b6040519080825280601f01601f191660200182016040528015612e4d5781602001600182028036833780820191505090505b50905060008290505b60008614612f0157600181612e6b919061391e565b90506000600a8088612e7d9190613815565b612e8791906137a4565b87612e92919061391e565b6030612e9e919061470d565b905060008160f81b905080848481518110612ebc57612ebb614742565b5b60200101907effffffffffffffffffffffffffffffffffffffffffffffffffffffffffffff1916908160001a905350600a88612ef89190613815565b97505050612e56565b819450505050505b919050565b60405180610120016040528060008152602001600073ffffffffffffffffffffffffffffffffffffffff16815260200160008152602001600081526020016000815260200160008152602001600081526020016000151581526020016000151581525090565b60405180606001604052806000815260200160008152602001600081525090565b600080fd5b600073ffffffffffffffffffffffffffffffffffffffff82169050919050565b6000612fc582612f9a565b9050919050565b612fd581612fba565b8114612fe057600080fd5b50565b600081359050612ff281612fcc565b92915050565b60006020828403121561300e5761300d612f95565b5b600061301c84828501612fe3565b91505092915050565b600081519050919050565b600082825260208201905092915050565b6000819050602082019050919050565b6000819050919050565b61306481613051565b82525050565b6000613076838361305b565b60208301905092915050565b6000602082019050919050565b600061309a82613025565b6130a48185613030565b93506130af83613041565b8060005b838110156130e05781516130c7888261306a565b97506130d283613082565b9250506001810190506130b3565b5085935050505092915050565b60006020820190508181036000830152613107818461308f565b905092915050565b61311881613051565b82525050565b6000602082019050613133600083018461310f565b92915050565b61314281613051565b811461314d57600080fd5b50565b60008135905061315f81613139565b92915050565b60006020828403121561317b5761317a612f95565b5b600061318984828501613150565b91505092915050565b61319b81612fba565b82525050565b60008115159050919050565b6131b6816131a1565b82525050565b610120820160008201516131d3600085018261305b565b5060208201516131e66020850182613192565b5060408201516131f9604085018261305b565b50606082015161320c606085018261305b565b50608082015161321f608085018261305b565b5060a082015161323260a085018261305b565b5060c082015161324560c085018261305b565b5060e082015161325860e08501826131ad565b5061010082015161326d6101008501826131ad565b50505050565b60006101208201905061328960008301846131bc565b92915050565b60006060820190506132a4600083018661310f565b6132b1602083018561310f565b6132be604083018461310f565b949350505050565b600080604083850312156132dd576132dc612f95565b5b60006132eb85828601612fe3565b92505060206132fc85828601613150565b9150509250929050565b7f4e487b7100000000000000000000000000000000000000000000000000000000600052602160045260246000fd5b6009811061334657613345613306565b5b50565b600081905061335782613335565b919050565b600061336782613349565b9050919050565b6133778161335c565b82525050565b61338681612fba565b82525050565b600081519050919050565b600082825260208201905092915050565b60005b838110156133c65780820151818401526020810190506133ab565b60008484015250505050565b6000601f19601f8301169050919050565b60006133ee8261338c565b6133f88185613397565b93506134088185602086016133a8565b613411816133d2565b840191505092915050565b600060a082019050613431600083018861336e565b61343e602083018761337d565b61344b604083018661310f565b613458606083018561310f565b818103608083015261346a81846133e3565b90509695505050505050565b600081519050919050565b600082825260208201905092915050565b6000819050602082019050919050565b6134ab8161335c565b82525050565b600082825260208201905092915050565b60006134cd8261338c565b6134d781856134b1565b93506134e78185602086016133a8565b6134f0816133d2565b840191505092915050565b600060a08301600083015161351360008601826134a2565b5060208301516135266020860182613192565b506040830151613539604086018261305b565b50606083015161354c606086018261305b565b506080830151848203608086015261356482826134c2565b9150508091505092915050565b600061357d83836134fb565b905092915050565b6000602082019050919050565b600061359d82613476565b6135a78185613481565b9350836020820285016135b985613492565b8060005b858110156135f557848403895281516135d68582613571565b94506135e183613585565b925060208a019950506001810190506135bd565b50829750879550505050505092915050565b600060208201905081810360008301526136218184613592565b905092915050565b60008060006060848603121561364257613641612f95565b5b600061365086828701613150565b935050602061366186828701613150565b925050604061367286828701613150565b9150509250925092565b606082016000820151613692600085018261305b565b5060208201516136a5602085018261305b565b5060408201516136b8604085018261305b565b50505050565b60006060820190506136d3600083018461367c565b92915050565b6136e2816131a1565b82525050565b6000610120820190506136fe600083018c61310f565b61370b602083018b61337d565b613718604083018a61310f565b613725606083018961310f565b613732608083018861310f565b61373f60a083018761310f565b61374c60c083018661310f565b61375960e08301856136d9565b6137676101008301846136d9565b9a9950505050505050505050565b7f4e487b7100000000000000000000000000000000000000000000000000000000600052601160045260246000fd5b60006137af82613051565b91506137ba83613051565b92508282026137c881613051565b915082820484148315176137df576137de613775565b5b5092915050565b7f4e487b7100000000000000000000000000000000000000000000000000000000600052601260045260246000fd5b600061382082613051565b915061382b83613051565b92508261383b5761383a6137e6565b5b828204905092915050565b7f4d757374207769746864726177206d6f7265207468616e203000000000000000600082015250565b600061387c601983613397565b915061388782613846565b602082019050919050565b600060208201905081810360008301526138ab8161386f565b9050919050565b7f496e73756666696369656e742062616c616e6365000000000000000000000000600082015250565b60006138e8601483613397565b91506138f3826138b2565b602082019050919050565b60006020820190508181036000830152613917816138db565b9050919050565b600061392982613051565b915061393483613051565b925082820390508181111561394c5761394b613775565b5b92915050565b7f4e487b7100000000000000000000000000000000000000000000000000000000600052604160045260246000fd5b7f4e487b7100000000000000000000000000000000000000000000000000000000600052602260045260246000fd5b600060028204905060018216806139c857607f821691505b6020821081036139db576139da613981565b5b50919050565b60008190508160005260206000209050919050565b60006020601f8301049050919050565b600082821b905092915050565b600060088302613a437fffffffffffffffffffffffffffffffffffffffffffffffffffffffffffffffff82613a06565b613a4d8683613a06565b95508019841693508086168417925050509392505050565b6000819050919050565b6000613a8a613a85613a8084613051565b613a65565b613051565b9050919050565b6000819050919050565b613aa483613a6f565b613ab8613ab082613a91565b848454613a13565b825550505050565b600090565b613acd613ac0565b613ad8818484613a9b565b505050565b5b81811015613afc57613af1600082613ac5565b600181019050613ade565b5050565b601f821115613b4157613b12816139e1565b613b1b846139f6565b81016020851015613b2a578190505b613b3e613b36856139f6565b830182613add565b50505b505050565b600082821c905092915050565b6000613b6460001984600802613b46565b1980831691505092915050565b6000613b7d8383613b53565b9150826002028217905092915050565b613b968261338c565b67ffffffffffffffff811115613baf57613bae613952565b5b613bb982546139b0565b613bc4828285613b00565b600060209050601f831160018114613bf75760008415613be5578287015190505b613bef8582613b71565b865550613c57565b601f198416613c05866139e1565b60005b82811015613c2d57848901518255600182019150602085019450602081019050613c08565b86831015613c4a5784890151613c46601f891682613b53565b8355505b6001600288020188555050505b505050505050565b6000604082019050613c74600083018561310f565b613c81602083018461310f565b9392505050565b7f4d757374207370656369667920616d6f756e7400000000000000000000000000600082015250565b6000613cbe601383613397565b9150613cc982613c88565b602082019050919050565b60006020820190508181036000830152613ced81613cb1565b9050919050565b7f496e73756666696369656e7420636f6c6c61746572616c000000000000000000600082015250565b6000613d2a601783613397565b9150613d3582613cf4565b602082019050919050565b60006020820190508181036000830152613d5981613d1d565b9050919050565b7f43616e6e6f742072656d6f766520636f6c6c61746572616c207769746820616360008201527f74697665206c6f616e7300000000000000000000000000000000000000000000602082015250565b6000613dbc602a83613397565b9150613dc782613d60565b604082019050919050565b60006020820190508181036000830152613deb81613daf565b9050919050565b7f4d7573742070726f7669646520636f6c6c61746572616c000000000000000000600082015250565b6000613e28601783613397565b9150613e3382613df2565b602082019050919050565b60006020820190508181036000830152613e5781613e1b565b9050919050565b7f4d7573742073706563696679206c6f616e20616d6f756e740000000000000000600082015250565b6000613e94601883613397565b9150613e9f82613e5e565b602082019050919050565b60006020820190508181036000830152613ec381613e87565b9050919050565b7f4d7573742073706563696679206c6f616e206475726174696f6e000000000000600082015250565b6000613f00601a83613397565b9150613f0b82613eca565b602082019050919050565b60006020820190508181036000830152613f2f81613ef3565b9050919050565b7f496e73756666696369656e7420426974636f696e20636f6c6c61746572616c00600082015250565b6000613f6c601f83613397565b9150613f7782613f36565b602082019050919050565b60006020820190508181036000830152613f9b81613f5f565b9050919050565b7f496e73756666696369656e7420636f6c6c61746572616c20726174696f000000600082015250565b6000613fd8601d83613397565b9150613fe382613fa2565b602082019050919050565b6000602082019050818103600083015261400781613fcb565b9050919050565b600061401982613051565b91507fffffffffffffffffffffffffffffffffffffffffffffffffffffffffffffffff820361404b5761404a613775565b5b600182019050919050565b600061406182613051565b915061406c83613051565b925082820190508082111561408457614083613775565b5b92915050565b600081905092915050565b7f4c6f616e2043726561746564202d2049443a2000000000000000000000000000600082015250565b60006140cb60138361408a565b91506140d682614095565b601382019050919050565b60006140ec8261338c565b6140f6818561408a565b93506141068185602086016133a8565b80840191505092915050565b600061411d826140be565b915061412982846140e1565b915081905092915050565b7f496e76616c696420726563697069656e74000000000000000000000000000000600082015250565b600061416a601183613397565b915061417582614134565b602082019050919050565b600060208201905081810360008301526141998161415d565b9050919050565b7f416d6f756e74206d757374206265203e20300000000000000000000000000000600082015250565b60006141d6601283613397565b91506141e1826141a0565b602082019050919050565b60006020820190508181036000830152614205816141c9565b9050919050565b7f4e6f7420746865206c6f616e20626f72726f7765720000000000000000000000600082015250565b6000614242601583613397565b915061424d8261420c565b602082019050919050565b6000602082019050818103600083015261427181614235565b9050919050565b7f4c6f616e206973206e6f74206163746976650000000000000000000000000000600082015250565b60006142ae601283613397565b91506142b982614278565b602082019050919050565b600060208201905081810360008301526142dd816142a1565b9050919050565b7f4c6f616e206973206c6971756964617465640000000000000000000000000000600082015250565b600061431a601283613397565b9150614325826142e4565b602082019050919050565b600060208201905081810360008301526143498161430d565b9050919050565b7f496e73756666696369656e742072657061796d656e7420616d6f756e74000000600082015250565b6000614386601d83613397565b915061439182614350565b602082019050919050565b600060208201905081810360008301526143b581614379565b9050919050565b7f496e73756666696369656e742072657061796d656e7420696e636c7564696e6760008201527f20696e7465726573740000000000000000000000000000000000000000000000602082015250565b6000614418602983613397565b9150614423826143bc565b604082019050919050565b600060208201905081810360008301526144478161440b565b9050919050565b7f4c6f616e20526570616964202d2049443a200000000000000000000000000000600082015250565b600061448460128361408a565b915061448f8261444e565b601282019050919050565b60006144a582614477565b91506144b182846140e1565b915081905092915050565b7f4c6f616e20616c7265616479206c697175696461746564000000000000000000600082015250565b60006144f2601783613397565b91506144fd826144bc565b602082019050919050565b60006020820190508181036000830152614521816144e5565b9050919050565b7f4c6f616e20646f6573206e6f74206d656574206c69717569646174696f6e206360008201527f7269746572696100000000000000000000000000000000000000000000000000602082015250565b6000614584602783613397565b915061458f82614528565b604082019050919050565b600060208201905081810360008301526145b381614577565b9050919050565b7f4c6f616e204c697175696461746564202d2049443a2000000000000000000000600082015250565b60006145f060168361408a565b91506145fb826145ba565b601682019050919050565b6000614611826145e3565b915061461d82846140e1565b915081905092915050565b7f4d757374206465706f736974206d6f7265207468616e20300000000000000000600082015250565b600061465e601883613397565b915061466982614628565b602082019050919050565b6000602082019050818103600083015261468d81614651565b9050919050565b7f4d7573742061646420636f6c6c61746572616c00000000000000000000000000600082015250565b60006146ca601383613397565b91506146d582614694565b602082019050919050565b600060208201905081810360008301526146f9816146bd565b9050919050565b600060ff82169050919050565b600061471882614700565b915061472383614700565b9250828201905060ff81111561473c5761473b613775565b5b92915050565b7f4e487b7100000000000000000000000000000000000000000000000000000000600052603260045260246000fdfea2646970667358221220008ea7ff50ee74001f3f6e9bbe4ee94bdece44c187c6669c7ae7adf0a3ee6b9764736f6c634300081c0033",
  "linkReferences": {},
  "deployedLinkReferences": {}
}