{
  "_format": "hh-sol-artifact-1",
  "contractName": "DecentralizedBank",
  "sourceName": "contracts/Bank.sol",
  "abi": [
    {
      "anonymous": false,
      "inputs": [
        {
          "indexed": true,
          "internalType": "address",
          "name": "user",
          "type": "address"
        },
        {
          "indexed": false,
          "internalType": "uint256",
          "name": "amount",
          "type": "uint256"
        },
        {
          "indexed": false,
          "internalType": "uint256",
          "name": "newBalance",
          "type": "uint256"
        }
      ],
      "name": "Deposited",
      "type": "event"
    },
    {
      "anonymous": false,
      "inputs": [
        {
          "indexed": true,
          "internalType": "address",
          "name": "from",
          "type": "address"
        },
        {
          "indexed": true,
          "internalType": "address",
          "name": "to",
          "type": "address"
        },
        {
          "indexed": false,
          "internalType": "uint256",
          "name": "amount",
          "type": "uint256"
        }
      ],
      "name": "Transferred",
      "type": "event"
    },
    {
      "anonymous": false,
      "inputs": [
        {
          "indexed": true,
          "internalType": "address",
          "name": "user",
          "type": "address"
        },
        {
          "indexed": false,
          "internalType": "uint256",
          "name": "amount",
          "type": "uint256"
        },
        {
          "indexed": false,
          "internalType": "uint256",
          "name": "newBalance",
          "type": "uint256"
        }
      ],
      "name": "Withdrawn",
      "type": "event"
    },
    {
      "inputs": [
        {
          "internalType": "address",
          "name": "",
          "type": "address"
        }
      ],
      "name": "balances",
      "outputs": [
        {
          "internalType": "uint256",
          "name": "",
          "type": "uint256"
        }
      ],
      "stateMutability": "view",
      "type": "function"
    },
    {
      "inputs": [],
      "name": "deposit",
      "outputs": [],
      "stateMutability": "payable",
      "type": "function"
    },
    {
      "inputs": [
        {
          "internalType": "address",
          "name": "user",
          "type": "address"
        }
      ],
      "name": "getBalance",
      "outputs": [
        {
          "internalType": "uint256",
          "name": "",
          "type": "uint256"
        }
      ],
      "stateMutability": "view",
      "type": "function"
    },
    {
      "inputs": [
        {
          "internalType": "address",
          "name": "user",
          "type": "address"
        }
      ],
      "name": "getHistory",
      "outputs": [
        {
          "components": [
            {
              "internalType": "enum DecentralizedBank.TxType",
              "name": "txType",
              "type": "uint8"
            },
            {
              "internalType": "address",
              "name": "counterparty",
              "type": "address"
            },
            {
              "internalType": "uint256",
              "name": "amount",
              "type": "uint256"
            },
            {
              "internalType": "uint256",
              "name": "timestamp",
              "type": "uint256"
            }
          ],
          "internalType": "struct DecentralizedBank.Transaction[]",
          "name": "",
          "type": "tuple[]"
        }
      ],
      "stateMutability": "view",
      "type": "function"
    },
    {
      "inputs": [
        {
          "internalType": "address",
          "name": "",
          "type": "address"
        },
        {
          "internalType": "uint256",
          "name": "",
          "type": "uint256"
        }
      ],
      "name": "history",
      "outputs": [
        {
          "internalType": "enum DecentralizedBank.TxType",
          "name": "txType",
          "type": "uint8"
        },
        {
          "internalType": "address",
          "name": "counterparty",
          "type": "address"
        },
        {
          "internalType": "uint256",
          "name": "amount",
          "type": "uint256"
        },
        {
          "internalType": "uint256",
          "name": "timestamp",
          "type": "uint256"
        }
      ],
      "stateMutability": "view",
      "type": "function"
    },
    {
      "inputs": [
        {
          "internalType": "address",
          "name": "to",
          "type": "address"
        },
        {
          "internalType": "uint256",
          "name": "amount",
          "type": "uint256"
        }
      ],
      "name": "transfer",
      "outputs": [],
      "stateMutability": "nonpayable",
      "type": "function"
    },
    {
      "inputs": [
        {
          "internalType": "uint256",
          "name": "amount",
          "type": "uint256"
        }
      ],
      "name": "withdraw",
      "outputs": [],
      "stateMutability": "nonpayable",
      "type": "function"
    }
  ],
  "bytecode": "0x6080604052348015600f57600080fd5b506114d18061001f6000396000f3fe6080604052600436106100705760003560e01c8063803968111161004e578063803968111461011b578063a9059cbb14610158578063d0e30db014610181578063f8b2cb4f1461018b57610070565b806327e235e3146100755780632e1a7d4d146100b25780637718f4ec146100db575b600080fd5b34801561008157600080fd5b5061009c60048036038101906100979190610e96565b6101c8565b6040516100a99190610edc565b60405180910390f35b3480156100be57600080fd5b506100d960048036038101906100d49190610f23565b6101e0565b005b3480156100e757600080fd5b5061010260048036038101906100fd9190610f50565b610511565b6040516101129493929190611016565b60405180910390f35b34801561012757600080fd5b50610142600480360381019061013d9190610e96565b61058b565b60405161014f919061118c565b60405180910390f35b34801561016457600080fd5b5061017f600480360381019061017a9190610f50565b6106ce565b005b610189610b83565b005b34801561019757600080fd5b506101b260048036038101906101ad9190610e96565b610deb565b6040516101bf9190610edc565b60405180910390f35b60006020528060005260406000206000915090505481565b60008111610223576040517f08c379a000000000000000000000000000000000000000000000000000000000815260040161021a9061120b565b60405180910390fd5b806000803373ffffffffffffffffffffffffffffffffffffffff1673ffffffffffffffffffffffffffffffffffffffff1681526020019081526020016000205410156102a4576040517f08c379a000000000000000000000000000000000000000000000000000000000815260040161029b90611277565b60405180910390fd5b806000803373ffffffffffffffffffffffffffffffffffffffff1673ffffffffffffffffffffffffffffffffffffffff16815260200190815260200160002060008282546102f291906112c6565b92505081905550600160003373ffffffffffffffffffffffffffffffffffffffff1673ffffffffffffffffffffffffffffffffffffffff16815260200190815260200160002060405180608001604052806001600381111561035757610356610f90565b5b8152602001600073ffffffffffffffffffffffffffffffffffffffff16815260200183815260200142815250908060018154018082558091505060019003906000526020600020906003020160009091909190915060008201518160000160006101000a81548160ff021916908360038111156103d7576103d6610f90565b5b021790555060208201518160000160016101000a81548173ffffffffffffffffffffffffffffffffffffffff021916908373ffffffffffffffffffffffffffffffffffffffff160217905550604082015181600101556060820151816002015550503373ffffffffffffffffffffffffffffffffffffffff166108fc829081150290604051600060405180830381858888f1935050505015801561047f573d6000803e3d6000fd5b503373ffffffffffffffffffffffffffffffffffffffff167f92ccf450a286a957af52509bc1c9939d1a6a481783e142e41e2499f0bb66ebc6826000803373ffffffffffffffffffffffffffffffffffffffff1673ffffffffffffffffffffffffffffffffffffffff168152602001908152602001600020546040516105069291906112fa565b60405180910390a250565b6001602052816000526040600020818154811061052d57600080fd5b9060005260206000209060030201600091509150508060000160009054906101000a900460ff16908060000160019054906101000a900473ffffffffffffffffffffffffffffffffffffffff16908060010154908060020154905084565b6060600160008373ffffffffffffffffffffffffffffffffffffffff1673ffffffffffffffffffffffffffffffffffffffff168152602001908152602001600020805480602002602001604051908101604052809291908181526020016000905b828210156106c357838290600052602060002090600302016040518060800160405290816000820160009054906101000a900460ff16600381111561063457610633610f90565b5b600381111561064657610645610f90565b5b81526020016000820160019054906101000a900473ffffffffffffffffffffffffffffffffffffffff1673ffffffffffffffffffffffffffffffffffffffff1673ffffffffffffffffffffffffffffffffffffffff16815260200160018201548152602001600282015481525050815260200190600101906105ec565b505050509050919050565b600073ffffffffffffffffffffffffffffffffffffffff168273ffffffffffffffffffffffffffffffffffffffff160361073d576040517f08c379a00000000000000000000000000000000000000000000000000000000081526004016107349061136f565b60405180910390fd5b60008111610780576040517f08c379a0000000000000000000000000000000000000000000000000000000008152600401610777906113db565b60405180910390fd5b806000803373ffffffffffffffffffffffffffffffffffffffff1673ffffffffffffffffffffffffffffffffffffffff168152602001908152602001600020541015610801576040517f08c379a00000000000000000000000000000000000000000000000000000000081526004016107f890611277565b60405180910390fd5b806000803373ffffffffffffffffffffffffffffffffffffffff1673ffffffffffffffffffffffffffffffffffffffff168152602001908152602001600020600082825461084f91906112c6565b925050819055508173ffffffffffffffffffffffffffffffffffffffff166108fc829081150290604051600060405180830381858888f1935050505015801561089c573d6000803e3d6000fd5b50600160003373ffffffffffffffffffffffffffffffffffffffff1673ffffffffffffffffffffffffffffffffffffffff1681526020019081526020016000206040518060800160405280600260038111156108fb576108fa610f90565b5b81526020018473ffffffffffffffffffffffffffffffffffffffff16815260200183815260200142815250908060018154018082558091505060019003906000526020600020906003020160009091909190915060008201518160000160006101000a81548160ff0219169083600381111561097a57610979610f90565b5b021790555060208201518160000160016101000a81548173ffffffffffffffffffffffffffffffffffffffff021916908373ffffffffffffffffffffffffffffffffffffffff16021790555060408201518160010155606082015181600201555050600160008373ffffffffffffffffffffffffffffffffffffffff1673ffffffffffffffffffffffffffffffffffffffff1681526020019081526020016000206040518060800160405280600380811115610a3957610a38610f90565b5b81526020013373ffffffffffffffffffffffffffffffffffffffff16815260200183815260200142815250908060018154018082558091505060019003906000526020600020906003020160009091909190915060008201518160000160006101000a81548160ff02191690836003811115610ab857610ab7610f90565b5b021790555060208201518160000160016101000a81548173ffffffffffffffffffffffffffffffffffffffff021916908373ffffffffffffffffffffffffffffffffffffffff160217905550604082015181600101556060820151816002015550508173ffffffffffffffffffffffffffffffffffffffff163373ffffffffffffffffffffffffffffffffffffffff167fd1ba4ac2e2a11b5101f6cb4d978f514a155b421e8ec396d2d9abaf0bb02917ee83604051610b779190610edc565b60405180910390a35050565b60003411610bc6576040517f08c379a0000000000000000000000000000000000000000000000000000000008152600401610bbd90611447565b60405180910390fd5b346000803373ffffffffffffffffffffffffffffffffffffffff1673ffffffffffffffffffffffffffffffffffffffff1681526020019081526020016000206000828254610c149190611467565b92505081905550600160003373ffffffffffffffffffffffffffffffffffffffff1673ffffffffffffffffffffffffffffffffffffffff168152602001908152602001600020604051806080016040528060006003811115610c7957610c78610f90565b5b8152602001600073ffffffffffffffffffffffffffffffffffffffff16815260200134815260200142815250908060018154018082558091505060019003906000526020600020906003020160009091909190915060008201518160000160006101000a81548160ff02191690836003811115610cf957610cf8610f90565b5b021790555060208201518160000160016101000a81548173ffffffffffffffffffffffffffffffffffffffff021916908373ffffffffffffffffffffffffffffffffffffffff160217905550604082015181600101556060820151816002015550503373ffffffffffffffffffffffffffffffffffffffff167f73a19dd210f1a7f902193214c0ee91dd35ee5b4d920cba8d519eca65a7b488ca346000803373ffffffffffffffffffffffffffffffffffffffff1673ffffffffffffffffffffffffffffffffffffffff16815260200190815260200160002054604051610de19291906112fa565b60405180910390a2565b60008060008373ffffffffffffffffffffffffffffffffffffffff1673ffffffffffffffffffffffffffffffffffffffff168152602001908152602001600020549050919050565b600080fd5b600073ffffffffffffffffffffffffffffffffffffffff82169050919050565b6000610e6382610e38565b9050919050565b610e7381610e58565b8114610e7e57600080fd5b50565b600081359050610e9081610e6a565b92915050565b600060208284031215610eac57610eab610e33565b5b6000610eba84828501610e81565b91505092915050565b6000819050919050565b610ed681610ec3565b82525050565b6000602082019050610ef16000830184610ecd565b92915050565b610f0081610ec3565b8114610f0b57600080fd5b50565b600081359050610f1d81610ef7565b92915050565b600060208284031215610f3957610f38610e33565b5b6000610f4784828501610f0e565b91505092915050565b60008060408385031215610f6757610f66610e33565b5b6000610f7585828601610e81565b9250506020610f8685828601610f0e565b9150509250929050565b7f4e487b7100000000000000000000000000000000000000000000000000000000600052602160045260246000fd5b60048110610fd057610fcf610f90565b5b50565b6000819050610fe182610fbf565b919050565b6000610ff182610fd3565b9050919050565b61100181610fe6565b82525050565b61101081610e58565b82525050565b600060808201905061102b6000830187610ff8565b6110386020830186611007565b6110456040830185610ecd565b6110526060830184610ecd565b95945050505050565b600081519050919050565b600082825260208201905092915050565b6000819050602082019050919050565b61109081610fe6565b82525050565b61109f81610e58565b82525050565b6110ae81610ec3565b82525050565b6080820160008201516110ca6000850182611087565b5060208201516110dd6020850182611096565b5060408201516110f060408501826110a5565b50606082015161110360608501826110a5565b50505050565b600061111583836110b4565b60808301905092915050565b6000602082019050919050565b60006111398261105b565b6111438185611066565b935061114e83611077565b8060005b8381101561117f5781516111668882611109565b975061117183611121565b925050600181019050611152565b5085935050505092915050565b600060208201905081810360008301526111a6818461112e565b905092915050565b600082825260208201905092915050565b7f4d757374207769746864726177206d6f7265207468616e203000000000000000600082015250565b60006111f56019836111ae565b9150611200826111bf565b602082019050919050565b60006020820190508181036000830152611224816111e8565b9050919050565b7f496e73756666696369656e742062616c616e6365000000000000000000000000600082015250565b60006112616014836111ae565b915061126c8261122b565b602082019050919050565b6000602082019050818103600083015261129081611254565b9050919050565b7f4e487b7100000000000000000000000000000000000000000000000000000000600052601160045260246000fd5b60006112d182610ec3565b91506112dc83610ec3565b92508282039050818111156112f4576112f3611297565b5b92915050565b600060408201905061130f6000830185610ecd565b61131c6020830184610ecd565b9392505050565b7f496e76616c696420726563697069656e74000000000000000000000000000000600082015250565b60006113596011836111ae565b915061136482611323565b602082019050919050565b600060208201905081810360008301526113888161134c565b9050919050565b7f416d6f756e74206d757374206265203e20300000000000000000000000000000600082015250565b60006113c56012836111ae565b91506113d08261138f565b602082019050919050565b600060208201905081810360008301526113f4816113b8565b9050919050565b7f4d757374206465706f736974206d6f7265207468616e20300000000000000000600082015250565b60006114316018836111ae565b915061143c826113fb565b602082019050919050565b6000602082019050818103600083015261146081611424565b9050919050565b600061147282610ec3565b915061147d83610ec3565b925082820190508082111561149557611494611297565b5b9291505056fea264697066735822122037a7ede312a918fedee83a2b68d8379f9b26baac8ee5e68ce5694f90621fbc0264736f6c634300081c0033",
  "linkReferences": {},
  "deployedLinkReferences": {}
}