{
  "_format": "hh-sol-artifact-1",
  "contractName": "DecentralizedBank",
  "sourceName": "contracts/Bank.sol",
  "abi": [
    {
      "anonymous": false,
      "inputs": [
        {
          "indexed": true,
          "internalType": "address",
          "name": "user",
          "type": "address"
        },
        {
          "indexed": false,
          "internalType": "uint256",
          "name": "amount",
          "type": "uint256"
        }
      ],
      "name": "BitcoinCollateralAdded",
      "type": "event"
    },
    {
      "anonymous": false,
      "inputs": [
        {
          "indexed": true,
          "internalType": "address",
          "name": "user",
          "type": "address"
        },
        {
          "indexed": false,
          "internalType": "uint256",
          "name": "amount",
          "type": "uint256"
        }
      ],
      "name": "BitcoinCollateralRemoved",
      "type": "event"
    },
    {
      "anonymous": false,
      "inputs": [
        {
          "indexed": true,
          "internalType": "address",
          "name": "user",
          "type": "address"
        },
        {
          "indexed": false,
          "internalType": "uint256",
          "name": "amount",
          "type": "uint256"
        },
        {
          "indexed": false,
          "internalType": "uint256",
          "name": "newBalance",
          "type": "uint256"
        }
      ],
      "name": "Deposited",
      "type": "event"
    },
    {
      "anonymous": false,
      "inputs": [
        {
          "indexed": true,
          "internalType": "uint256",
          "name": "loanId",
          "type": "uint256"
        },
        {
          "indexed": true,
          "internalType": "address",
          "name": "borrower",
          "type": "address"
        },
        {
          "indexed": false,
          "internalType": "uint256",
          "name": "bitcoinCollateral",
          "type": "uint256"
        },
        {
          "indexed": false,
          "internalType": "uint256",
          "name": "loanAmount",
          "type": "uint256"
        }
      ],
      "name": "LoanCreated",
      "type": "event"
    },
    {
      "anonymous": false,
      "inputs": [
        {
          "indexed": true,
          "internalType": "uint256",
          "name": "loanId",
          "type": "uint256"
        },
        {
          "indexed": true,
          "internalType": "address",
          "name": "borrower",
          "type": "address"
        },
        {
          "indexed": false,
          "internalType": "uint256",
          "name": "collateralSeized",
          "type": "uint256"
        }
      ],
      "name": "LoanLiquidated",
      "type": "event"
    },
    {
      "anonymous": false,
      "inputs": [
        {
          "indexed": true,
          "internalType": "uint256",
          "name": "loanId",
          "type": "uint256"
        },
        {
          "indexed": true,
          "internalType": "address",
          "name": "borrower",
          "type": "address"
        },
        {
          "indexed": false,
          "internalType": "uint256",
          "name": "amount",
          "type": "uint256"
        }
      ],
      "name": "LoanRepaid",
      "type": "event"
    },
    {
      "anonymous": false,
      "inputs": [
        {
          "indexed": true,
          "internalType": "uint256",
          "name": "paymentId",
          "type": "uint256"
        },
        {
          "indexed": true,
          "internalType": "address",
          "name": "sender",
          "type": "address"
        }
      ],
      "name": "ScheduledPaymentCancelled",
      "type": "event"
    },
    {
      "anonymous": false,
      "inputs": [
        {
          "indexed": true,
          "internalType": "uint256",
          "name": "paymentId",
          "type": "uint256"
        },
        {
          "indexed": true,
          "internalType": "address",
          "name": "sender",
          "type": "address"
        },
        {
          "indexed": true,
          "internalType": "address",
          "name": "recipient",
          "type": "address"
        },
        {
          "indexed": false,
          "internalType": "uint256",
          "name": "amount",
          "type": "uint256"
        },
        {
          "indexed": false,
          "internalType": "uint256",
          "name": "frequency",
          "type": "uint256"
        }
      ],
      "name": "ScheduledPaymentCreated",
      "type": "event"
    },
    {
      "anonymous": false,
      "inputs": [
        {
          "indexed": true,
          "internalType": "uint256",
          "name": "paymentId",
          "type": "uint256"
        },
        {
          "indexed": true,
          "internalType": "address",
          "name": "sender",
          "type": "address"
        },
        {
          "indexed": true,
          "internalType": "address",
          "name": "recipient",
          "type": "address"
        },
        {
          "indexed": false,
          "internalType": "uint256",
          "name": "amount",
          "type": "uint256"
        }
      ],
      "name": "ScheduledPaymentExecuted",
      "type": "event"
    },
    {
      "anonymous": false,
      "inputs": [
        {
          "indexed": true,
          "internalType": "uint256",
          "name": "paymentId",
          "type": "uint256"
        },
        {
          "indexed": true,
          "internalType": "address",
          "name": "sender",
          "type": "address"
        },
        {
          "indexed": false,
          "internalType": "uint256",
          "name": "newAmount",
          "type": "uint256"
        },
        {
          "indexed": false,
          "internalType": "uint256",
          "name": "newFrequency",
          "type": "uint256"
        }
      ],
      "name": "ScheduledPaymentUpdated",
      "type": "event"
    },
    {
      "anonymous": false,
      "inputs": [
        {
          "indexed": true,
          "internalType": "address",
          "name": "from",
          "type": "address"
        },
        {
          "indexed": true,
          "internalType": "address",
          "name": "to",
          "type": "address"
        },
        {
          "indexed": false,
          "internalType": "uint256",
          "name": "amount",
          "type": "uint256"
        }
      ],
      "name": "Transferred",
      "type": "event"
    },
    {
      "anonymous": false,
      "inputs": [
        {
          "indexed": true,
          "internalType": "address",
          "name": "user",
          "type": "address"
        },
        {
          "indexed": false,
          "internalType": "uint256",
          "name": "amount",
          "type": "uint256"
        },
        {
          "indexed": false,
          "internalType": "uint256",
          "name": "newBalance",
          "type": "uint256"
        }
      ],
      "name": "Withdrawn",
      "type": "event"
    },
    {
      "inputs": [],
      "name": "BASE_INTEREST_RATE",
      "outputs": [
        {
          "internalType": "uint256",
          "name": "",
          "type": "uint256"
        }
      ],
      "stateMutability": "view",
      "type": "function"
    },
    {
      "inputs": [],
      "name": "LIQUIDATION_THRESHOLD",
      "outputs": [
        {
          "internalType": "uint256",
          "name": "",
          "type": "uint256"
        }
      ],
      "stateMutability": "view",
      "type": "function"
    },
    {
      "inputs": [],
      "name": "MIN_COLLATERAL_RATIO",
      "outputs": [
        {
          "internalType": "uint256",
          "name": "",
          "type": "uint256"
        }
      ],
      "stateMutability": "view",
      "type": "function"
    },
    {
      "inputs": [
        {
          "internalType": "uint256",
          "name": "bitcoinAmount",
          "type": "uint256"
        }
      ],
      "name": "addBitcoinCollateral",
      "outputs": [],
      "stateMutability": "nonpayable",
      "type": "function"
    },
    {
      "inputs": [
        {
          "internalType": "address",
          "name": "",
          "type": "address"
        }
      ],
      "name": "balances",
      "outputs": [
        {
          "internalType": "uint256",
          "name": "",
          "type": "uint256"
        }
      ],
      "stateMutability": "view",
      "type": "function"
    },
    {
      "inputs": [
        {
          "internalType": "address",
          "name": "",
          "type": "address"
        }
      ],
      "name": "bitcoinPositions",
      "outputs": [
        {
          "internalType": "uint256",
          "name": "totalCollateral",
          "type": "uint256"
        },
        {
          "internalType": "uint256",
          "name": "totalLoans",
          "type": "uint256"
        },
        {
          "internalType": "uint256",
          "name": "liquidationThreshold",
          "type": "uint256"
        }
      ],
      "stateMutability": "view",
      "type": "function"
    },
    {
      "inputs": [
        {
          "internalType": "uint256",
          "name": "paymentId",
          "type": "uint256"
        }
      ],
      "name": "cancelScheduledPayment",
      "outputs": [],
      "stateMutability": "nonpayable",
      "type": "function"
    },
    {
      "inputs": [
        {
          "internalType": "bytes",
          "name": "",
          "type": "bytes"
        }
      ],
      "name": "checkUpkeep",
      "outputs": [
        {
          "internalType": "bool",
          "name": "upkeepNeeded",
          "type": "bool"
        },
        {
          "internalType": "bytes",
          "name": "performData",
          "type": "bytes"
        }
      ],
      "stateMutability": "view",
      "type": "function"
    },
    {
      "inputs": [
        {
          "internalType": "uint256",
          "name": "bitcoinCollateral",
          "type": "uint256"
        },
        {
          "internalType": "uint256",
          "name": "loanAmount",
          "type": "uint256"
        },
        {
          "internalType": "uint256",
          "name": "loanDuration",
          "type": "uint256"
        }
      ],
      "name": "createLoan",
      "outputs": [],
      "stateMutability": "nonpayable",
      "type": "function"
    },
    {
      "inputs": [
        {
          "internalType": "address",
          "name": "recipient",
          "type": "address"
        },
        {
          "internalType": "uint256",
          "name": "amount",
          "type": "uint256"
        },
        {
          "internalType": "uint256",
          "name": "frequency",
          "type": "uint256"
        },
        {
          "internalType": "uint256",
          "name": "totalPayments",
          "type": "uint256"
        },
        {
          "internalType": "string",
          "name": "description",
          "type": "string"
        }
      ],
      "name": "createScheduledPayment",
      "outputs": [],
      "stateMutability": "nonpayable",
      "type": "function"
    },
    {
      "inputs": [],
      "name": "deposit",
      "outputs": [],
      "stateMutability": "payable",
      "type": "function"
    },
    {
      "inputs": [
        {
          "internalType": "uint256",
          "name": "paymentId",
          "type": "uint256"
        }
      ],
      "name": "executeScheduledPayment",
      "outputs": [],
      "stateMutability": "nonpayable",
      "type": "function"
    },
    {
      "inputs": [
        {
          "internalType": "address",
          "name": "user",
          "type": "address"
        }
      ],
      "name": "getBalance",
      "outputs": [
        {
          "internalType": "uint256",
          "name": "",
          "type": "uint256"
        }
      ],
      "stateMutability": "view",
      "type": "function"
    },
    {
      "inputs": [
        {
          "internalType": "address",
          "name": "user",
          "type": "address"
        }
      ],
      "name": "getBitcoinPosition",
      "outputs": [
        {
          "components": [
            {
              "internalType": "uint256",
              "name": "totalCollateral",
              "type": "uint256"
            },
            {
              "internalType": "uint256",
              "name": "totalLoans",
              "type": "uint256"
            },
            {
              "internalType": "uint256",
              "name": "liquidationThreshold",
              "type": "uint256"
            }
          ],
          "internalType": "struct DecentralizedBank.BitcoinPosition",
          "name": "",
          "type": "tuple"
        }
      ],
      "stateMutability": "view",
      "type": "function"
    },
    {
      "inputs": [
        {
          "internalType": "uint256",
          "name": "loanId",
          "type": "uint256"
        }
      ],
      "name": "getCollateralRatio",
      "outputs": [
        {
          "internalType": "uint256",
          "name": "",
          "type": "uint256"
        }
      ],
      "stateMutability": "view",
      "type": "function"
    },
    {
      "inputs": [
        {
          "internalType": "address",
          "name": "user",
          "type": "address"
        }
      ],
      "name": "getHistory",
      "outputs": [
        {
          "components": [
            {
              "internalType": "enum DecentralizedBank.TxType",
              "name": "txType",
              "type": "uint8"
            },
            {
              "internalType": "address",
              "name": "counterparty",
              "type": "address"
            },
            {
              "internalType": "uint256",
              "name": "amount",
              "type": "uint256"
            },
            {
              "internalType": "uint256",
              "name": "timestamp",
              "type": "uint256"
            },
            {
              "internalType": "string",
              "name": "description",
              "type": "string"
            }
          ],
          "internalType": "struct DecentralizedBank.Transaction[]",
          "name": "",
          "type": "tuple[]"
        }
      ],
      "stateMutability": "view",
      "type": "function"
    },
    {
      "inputs": [
        {
          "internalType": "uint256",
          "name": "loanId",
          "type": "uint256"
        }
      ],
      "name": "getLoan",
      "outputs": [
        {
          "components": [
            {
              "internalType": "uint256",
              "name": "id",
              "type": "uint256"
            },
            {
              "internalType": "address",
              "name": "borrower",
              "type": "address"
            },
            {
              "internalType": "uint256",
              "name": "bitcoinCollateral",
              "type": "uint256"
            },
            {
              "internalType": "uint256",
              "name": "loanAmount",
              "type": "uint256"
            },
            {
              "internalType": "uint256",
              "name": "interestRate",
              "type": "uint256"
            },
            {
              "internalType": "uint256",
              "name": "startTime",
              "type": "uint256"
            },
            {
              "internalType": "uint256",
              "name": "dueDate",
              "type": "uint256"
            },
            {
              "internalType": "bool",
              "name": "isActive",
              "type": "bool"
            },
            {
              "internalType": "bool",
              "name": "isLiquidated",
              "type": "bool"
            }
          ],
          "internalType": "struct DecentralizedBank.Loan",
          "name": "",
          "type": "tuple"
        }
      ],
      "stateMutability": "view",
      "type": "function"
    },
    {
      "inputs": [],
      "name": "getReadyScheduledPayments",
      "outputs": [
        {
          "internalType": "uint256[]",
          "name": "",
          "type": "uint256[]"
        }
      ],
      "stateMutability": "view",
      "type": "function"
    },
    {
      "inputs": [
        {
          "internalType": "uint256",
          "name": "loanId",
          "type": "uint256"
        }
      ],
      "name": "getRepaymentAmount",
      "outputs": [
        {
          "internalType": "uint256",
          "name": "totalRepayment",
          "type": "uint256"
        }
      ],
      "stateMutability": "view",
      "type": "function"
    },
    {
      "inputs": [
        {
          "internalType": "uint256",
          "name": "paymentId",
          "type": "uint256"
        }
      ],
      "name": "getScheduledPayment",
      "outputs": [
        {
          "components": [
            {
              "internalType": "uint256",
              "name": "id",
              "type": "uint256"
            },
            {
              "internalType": "address",
              "name": "sender",
              "type": "address"
            },
            {
              "internalType": "address",
              "name": "recipient",
              "type": "address"
            },
            {
              "internalType": "uint256",
              "name": "amount",
              "type": "uint256"
            },
            {
              "internalType": "uint256",
              "name": "frequency",
              "type": "uint256"
            },
            {
              "internalType": "uint256",
              "name": "nextPaymentTime",
              "type": "uint256"
            },
            {
              "internalType": "uint256",
              "name": "totalPayments",
              "type": "uint256"
            },
            {
              "internalType": "uint256",
              "name": "paymentsMade",
              "type": "uint256"
            },
            {
              "internalType": "bool",
              "name": "isActive",
              "type": "bool"
            },
            {
              "internalType": "string",
              "name": "description",
              "type": "string"
            }
          ],
          "internalType": "struct DecentralizedBank.ScheduledPayment",
          "name": "",
          "type": "tuple"
        }
      ],
      "stateMutability": "view",
      "type": "function"
    },
    {
      "inputs": [],
      "name": "getTotalBitcoinCollateral",
      "outputs": [
        {
          "internalType": "uint256",
          "name": "",
          "type": "uint256"
        }
      ],
      "stateMutability": "view",
      "type": "function"
    },
    {
      "inputs": [],
      "name": "getTotalLoans",
      "outputs": [
        {
          "internalType": "uint256",
          "name": "",
          "type": "uint256"
        }
      ],
      "stateMutability": "view",
      "type": "function"
    },
    {
      "inputs": [],
      "name": "getTotalScheduledPayments",
      "outputs": [
        {
          "internalType": "uint256",
          "name": "",
          "type": "uint256"
        }
      ],
      "stateMutability": "view",
      "type": "function"
    },
    {
      "inputs": [
        {
          "internalType": "address",
          "name": "user",
          "type": "address"
        }
      ],
      "name": "getUserLoans",
      "outputs": [
        {
          "internalType": "uint256[]",
          "name": "",
          "type": "uint256[]"
        }
      ],
      "stateMutability": "view",
      "type": "function"
    },
    {
      "inputs": [
        {
          "internalType": "address",
          "name": "user",
          "type": "address"
        }
      ],
      "name": "getUserScheduledPayments",
      "outputs": [
        {
          "internalType": "uint256[]",
          "name": "",
          "type": "uint256[]"
        }
      ],
      "stateMutability": "view",
      "type": "function"
    },
    {
      "inputs": [
        {
          "internalType": "address",
          "name": "",
          "type": "address"
        },
        {
          "internalType": "uint256",
          "name": "",
          "type": "uint256"
        }
      ],
      "name": "history",
      "outputs": [
        {
          "internalType": "enum DecentralizedBank.TxType",
          "name": "txType",
          "type": "uint8"
        },
        {
          "internalType": "address",
          "name": "counterparty",
          "type": "address"
        },
        {
          "internalType": "uint256",
          "name": "amount",
          "type": "uint256"
        },
        {
          "internalType": "uint256",
          "name": "timestamp",
          "type": "uint256"
        },
        {
          "internalType": "string",
          "name": "description",
          "type": "string"
        }
      ],
      "stateMutability": "view",
      "type": "function"
    },
    {
      "inputs": [
        {
          "internalType": "uint256",
          "name": "loanId",
          "type": "uint256"
        }
      ],
      "name": "liquidateLoan",
      "outputs": [],
      "stateMutability": "nonpayable",
      "type": "function"
    },
    {
      "inputs": [
        {
          "internalType": "uint256",
          "name": "",
          "type": "uint256"
        }
      ],
      "name": "loans",
      "outputs": [
        {
          "internalType": "uint256",
          "name": "id",
          "type": "uint256"
        },
        {
          "internalType": "address",
          "name": "borrower",
          "type": "address"
        },
        {
          "internalType": "uint256",
          "name": "bitcoinCollateral",
          "type": "uint256"
        },
        {
          "internalType": "uint256",
          "name": "loanAmount",
          "type": "uint256"
        },
        {
          "internalType": "uint256",
          "name": "interestRate",
          "type": "uint256"
        },
        {
          "internalType": "uint256",
          "name": "startTime",
          "type": "uint256"
        },
        {
          "internalType": "uint256",
          "name": "dueDate",
          "type": "uint256"
        },
        {
          "internalType": "bool",
          "name": "isActive",
          "type": "bool"
        },
        {
          "internalType": "bool",
          "name": "isLiquidated",
          "type": "bool"
        }
      ],
      "stateMutability": "view",
      "type": "function"
    },
    {
      "inputs": [
        {
          "internalType": "bytes",
          "name": "performData",
          "type": "bytes"
        }
      ],
      "name": "performUpkeep",
      "outputs": [],
      "stateMutability": "nonpayable",
      "type": "function"
    },
    {
      "inputs": [],
      "name": "registerWithKeepers",
      "outputs": [],
      "stateMutability": "nonpayable",
      "type": "function"
    },
    {
      "inputs": [
        {
          "internalType": "uint256",
          "name": "bitcoinAmount",
          "type": "uint256"
        }
      ],
      "name": "removeBitcoinCollateral",
      "outputs": [],
      "stateMutability": "nonpayable",
      "type": "function"
    },
    {
      "inputs": [
        {
          "internalType": "uint256",
          "name": "loanId",
          "type": "uint256"
        }
      ],
      "name": "repayLoan",
      "outputs": [],
      "stateMutability": "payable",
      "type": "function"
    },
    {
      "inputs": [
        {
          "internalType": "uint256",
          "name": "",
          "type": "uint256"
        }
      ],
      "name": "scheduledPayments",
      "outputs": [
        {
          "internalType": "uint256",
          "name": "id",
          "type": "uint256"
        },
        {
          "internalType": "address",
          "name": "sender",
          "type": "address"
        },
        {
          "internalType": "address",
          "name": "recipient",
          "type": "address"
        },
        {
          "internalType": "uint256",
          "name": "amount",
          "type": "uint256"
        },
        {
          "internalType": "uint256",
          "name": "frequency",
          "type": "uint256"
        },
        {
          "internalType": "uint256",
          "name": "nextPaymentTime",
          "type": "uint256"
        },
        {
          "internalType": "uint256",
          "name": "totalPayments",
          "type": "uint256"
        },
        {
          "internalType": "uint256",
          "name": "paymentsMade",
          "type": "uint256"
        },
        {
          "internalType": "bool",
          "name": "isActive",
          "type": "bool"
        },
        {
          "internalType": "string",
          "name": "description",
          "type": "string"
        }
      ],
      "stateMutability": "view",
      "type": "function"
    },
    {
      "inputs": [],
      "name": "totalBitcoinCollateral",
      "outputs": [
        {
          "internalType": "uint256",
          "name": "",
          "type": "uint256"
        }
      ],
      "stateMutability": "view",
      "type": "function"
    },
    {
      "inputs": [],
      "name": "totalLoans",
      "outputs": [
        {
          "internalType": "uint256",
          "name": "",
          "type": "uint256"
        }
      ],
      "stateMutability": "view",
      "type": "function"
    },
    {
      "inputs": [],
      "name": "totalScheduledPayments",
      "outputs": [
        {
          "internalType": "uint256",
          "name": "",
          "type": "uint256"
        }
      ],
      "stateMutability": "view",
      "type": "function"
    },
    {
      "inputs": [
        {
          "internalType": "address",
          "name": "to",
          "type": "address"
        },
        {
          "internalType": "uint256",
          "name": "amount",
          "type": "uint256"
        }
      ],
      "name": "transfer",
      "outputs": [],
      "stateMutability": "nonpayable",
      "type": "function"
    },
    {
      "inputs": [
        {
          "internalType": "uint256",
          "name": "paymentId",
          "type": "uint256"
        },
        {
          "internalType": "uint256",
          "name": "newAmount",
          "type": "uint256"
        },
        {
          "internalType": "uint256",
          "name": "newFrequency",
          "type": "uint256"
        }
      ],
      "name": "updateScheduledPayment",
      "outputs": [],
      "stateMutability": "nonpayable",
      "type": "function"
    },
    {
      "inputs": [
        {
          "internalType": "address",
          "name": "",
          "type": "address"
        },
        {
          "internalType": "uint256",
          "name": "",
          "type": "uint256"
        }
      ],
      "name": "userLoans",
      "outputs": [
        {
          "internalType": "uint256",
          "name": "",
          "type": "uint256"
        }
      ],
      "stateMutability": "view",
      "type": "function"
    },
    {
      "inputs": [
        {
          "internalType": "address",
          "name": "",
          "type": "address"
        },
        {
          "internalType": "uint256",
          "name": "",
          "type": "uint256"
        }
      ],
      "name": "userScheduledPayments",
      "outputs": [
        {
          "internalType": "uint256",
          "name": "",
          "type": "uint256"
        }
      ],
      "stateMutability": "view",
      "type": "function"
    },
    {
      "inputs": [
        {
          "internalType": "uint256",
          "name": "amount",
          "type": "uint256"
        }
      ],
      "name": "withdraw",
      "outputs": [],
      "stateMutability": "nonpayable",
      "type": "function"
    }
  ],
  "bytecode": "0x6080604052348015600f57600080fd5b506143338061001f6000396000f3fe6080604052600436106102465760003560e01c806378ee589311610139578063ab7b1c89116100b6578063d8bad5bd1161007a578063d8bad5bd146106f8578063e1ec3c6814610718578063e696eb14146107df578063e7c63b7b146107ff578063f8b2cb4f1461081f578063fb8cf5d61461085557600080fd5b8063ab7b1c8914610665578063cc952b5714610678578063ccdd9f5d1461068e578063d0e30db0146106ae578063d7d0563d146106b657600080fd5b806386661be3116100fd57806386661be3146105d0578063904b513b146105f057806390a8ae9b14610610578063a27bc4d214610625578063a9059cbb1461064557600080fd5b806378ee5893146105365780637a9fffb714610563578063803968111461057857806380e1f227146105a5578063833be5d5146105bb57600080fd5b80633c258520116101c75780635174d7651161018b5780635174d7651461044c5780635f8b1fd5146104615780636053f29c146104b75780636e04ff0d146104d75780637718f4ec1461050557600080fd5b80633c258520146103945780634585e33b146103ca5780634a1cb9f7146103ea5780634cc8c31e1461040a578063504006ca1461041f57600080fd5b806327e235e31161020e57806327e235e3146102f15780632d310a371461031e5780632e1a7d4d1461033e5780632e337f5b1461035e578063352d6c581461037e57600080fd5b806302bf321f1461024b5780630d8cb2ff1461028157806316788150146102a55780632210532b146102bc57806323b24385146102dc575b600080fd5b34801561025757600080fd5b5061026b6102663660046137b4565b610875565b60405161027891906137d6565b60405180910390f35b34801561028d57600080fd5b506102976101f481565b604051908152602001610278565b3480156102b157600080fd5b506102ba6108e1565b005b3480156102c857600080fd5b506102976102d7366004613819565b610923565b3480156102e857600080fd5b50600954610297565b3480156102fd57600080fd5b5061029761030c3660046137b4565b60006020819052908152604090205481565b34801561032a57600080fd5b50610297610339366004613819565b6109be565b34801561034a57600080fd5b506102ba610359366004613819565b610a3a565b34801561036a57600080fd5b5061026b6103793660046137b4565b610c36565b34801561038a57600080fd5b5061029760075481565b3480156103a057600080fd5b506103b46103af366004613819565b610ca0565b6040516102789a99989796959493929190613882565b3480156103d657600080fd5b506102ba6103e53660046138f1565b610d8e565b3480156103f657600080fd5b506102ba610405366004613819565b610e3f565b34801561041657600080fd5b50600754610297565b34801561042b57600080fd5b5061043f61043a366004613819565b6110a8565b6040516102789190613965565b34801561045857600080fd5b5061026b61118f565b34801561046d57600080fd5b5061049c61047c3660046137b4565b600260208190526000918252604090912080546001820154919092015483565b60408051938452602084019290925290820152606001610278565b3480156104c357600080fd5b506102976104d23660046139de565b61130e565b3480156104e357600080fd5b506104f76104f23660046138f1565b61133f565b604051610278929190613a08565b34801561051157600080fd5b506105256105203660046139de565b611380565b604051610278959493929190613a5b565b34801561054257600080fd5b50610556610551366004613819565b611468565b6040516102789190613aa0565b34801561056f57600080fd5b5061029760c881565b34801561058457600080fd5b506105986105933660046137b4565b6115fa565b6040516102789190613b41565b3480156105b157600080fd5b5061029760095481565b3480156105c757600080fd5b50600854610297565b3480156105dc57600080fd5b506102ba6105eb366004613c31565b61175a565b3480156105fc57600080fd5b506102ba61060b366004613cf9565b611ade565b34801561061c57600080fd5b50610297609681565b34801561063157600080fd5b506102ba610640366004613819565b611f74565b34801561065157600080fd5b506102ba6106603660046139de565b612138565b6102ba610673366004613819565b61246e565b34801561068457600080fd5b5061029760085481565b34801561069a57600080fd5b506102ba6106a9366004613819565b6127c4565b6102ba612aa6565b3480156106c257600080fd5b506106d66106d13660046137b4565b612c49565b6040805182518152602080840151908201529181015190820152606001610278565b34801561070457600080fd5b506102976107133660046139de565b612caf565b34801561072457600080fd5b5061078f610733366004613819565b60036020819052600091825260409091208054600182015460028301549383015460048401546005850154600686015460079096015494966001600160a01b039094169593949293919290919060ff8082169161010090041689565b60408051998a526001600160a01b0390981660208a0152968801959095526060870193909352608086019190915260a085015260c0840152151560e0830152151561010082015261012001610278565b3480156107eb57600080fd5b506102ba6107fa366004613cf9565b612ccb565b34801561080b57600080fd5b506102ba61081a366004613819565b612e15565b34801561082b57600080fd5b5061029761083a3660046137b4565b6001600160a01b031660009081526020819052604090205490565b34801561086157600080fd5b506102ba610870366004613819565b612fc0565b6001600160a01b0381166000908152600460209081526040918290208054835181840281018401909452808452606093928301828280156108d557602002820191906000526020600020905b8154815260200190600101908083116108c1575b50505050509050919050565b6040805160008082526020820181905291339183917fb272b7ba744e64ed131e7fd6a1abcb3ff4d3541979a489a829f325c0a243ad09910160405180910390a4565b6000818152600360205260408120600781015460ff1661095e5760405162461bcd60e51b815260040161095590613d25565b60405180910390fd5b60008160050154426109709190613d67565b9050600064496cebb800828460040154856003015461098f9190613d80565b6109999190613d80565b6109a39190613d97565b90508083600301546109b59190613db9565b95945050505050565b600081815260036020819052604082209081015482036109e15750600092915050565b60006305f5e100826002015460326109f99190613d80565b610a0b90670de0b6b3a7640000613d80565b610a159190613d97565b6003830154909150610a28826064613d80565b610a329190613d97565b949350505050565b60008111610a8a5760405162461bcd60e51b815260206004820152601960248201527f4d757374207769746864726177206d6f7265207468616e2030000000000000006044820152606401610955565b33600090815260208190526040902054811115610ab95760405162461bcd60e51b815260040161095590613dcc565b3360009081526020819052604081208054839290610ad8908490613d67565b9091555050336000908152600160208181526040808420815160a0810183528481528084018690528083018790524260608201528251808401909352600e83526d1155120815da5d1a191c985dd85b60921b8385015260808101929092528054808501825590855291909320835160049092020180549092839160ff19169083600b811115610b6957610b69613a23565b0217905550602082015181546001600160a01b0390911661010002610100600160a81b0319909116178155604082015160018201556060820151600282015560808201516003820190610bbc9082613e83565b505060405133915082156108fc029083906000818181858888f19350505050158015610bec573d6000803e3d6000fd5b503360008181526020818152604091829020548251858152918201527f92ccf450a286a957af52509bc1c9939d1a6a481783e142e41e2499f0bb66ebc6910160405180910390a250565b6001600160a01b0381166000908152600660209081526040918290208054835181840281018401909452808452606093928301828280156108d557602002820191906000526020600020908154815260200190600101908083116108c15750505050509050919050565b60056020819052600091825260409091208054600182015460028301546003840154600485015495850154600686015460078701546008880154600989018054989a6001600160a01b039889169a9890971698959794959394929360ff9092169291610d0b90613dfa565b80601f0160208091040260200160405190810160405280929190818152602001828054610d3790613dfa565b8015610d845780601f10610d5957610100808354040283529160200191610d84565b820191906000526020600020905b815481529060010190602001808311610d6757829003601f168201915b505050505090508a565b6000610d9c82840184613f42565b905060005b8151811015610e39576000828281518110610dbe57610dbe613fe8565b60209081029190910181015160008181526005909252604090912060088101549192509060ff168015610df5575080600501544210155b8015610e215750600381015460018201546001600160a01b031660009081526020819052604090205410155b15610e2f57610e2f8261341d565b5050600101610da1565b50505050565b60008111610e855760405162461bcd60e51b8152602060048201526013602482015272135d5cdd081cdc1958da599e48185b5bdd5b9d606a1b6044820152606401610955565b3360009081526002602052604090208054821115610ee55760405162461bcd60e51b815260206004820152601760248201527f496e73756666696369656e7420636f6c6c61746572616c0000000000000000006044820152606401610955565b600181015415610f4a5760405162461bcd60e51b815260206004820152602a60248201527f43616e6e6f742072656d6f766520636f6c6c61746572616c207769746820616360448201526974697665206c6f616e7360b01b6064820152608401610955565b81816000016000828254610f5e9190613d67565b925050819055508160096000828254610f779190613d67565b9091555050336000908152600160208181526040808420815160a081018352600881528084018690528083018890524260608201528251808401909352601a83527f426974636f696e20436f6c6c61746572616c2052656d6f7665640000000000008385015260808101929092528054808501825590855291909320835160049092020180549092839160ff19169083600b81111561101857611018613a23565b0217905550602082015181546001600160a01b0390911661010002610100600160a81b031990911617815560408201516001820155606082015160028201556080820151600382019061106b9082613e83565b50506040518381523391507f4b0ec4b0b40af5ba45498a8493dd48c4e01e5779ed14427be9ca72c33aec4806906020015b60405180910390a25050565b6111046040518061012001604052806000815260200160006001600160a01b0316815260200160008152602001600081526020016000815260200160008152602001600081526020016000151581526020016000151581525090565b506000908152600360208181526040928390208351610120810185528154815260018201546001600160a01b03169281019290925260028101549382019390935290820154606082015260048201546080820152600582015460a0820152600682015460c082015260079091015460ff808216151560e0840152610100918290041615159082015290565b6060600060075467ffffffffffffffff8111156111ae576111ae613bea565b6040519080825280602002602001820160405280156111d7578160200160208202803683370190505b5090506000805b600754811015611274576000818152600560205260409020600881015460ff16801561120e575080600501544210155b801561123a5750600381015460018201546001600160a01b031660009081526020819052604090205410155b1561126b578184848151811061125257611252613fe8565b60209081029190910101528261126781613ffe565b9350505b506001016111de565b5060008167ffffffffffffffff81111561129057611290613bea565b6040519080825280602002602001820160405280156112b9578160200160208202803683370190505b50905060005b82811015611306578381815181106112d9576112d9613fe8565b60200260200101518282815181106112f3576112f3613fe8565b60209081029190910101526001016112bf565b509392505050565b6006602052816000526040600020818154811061132a57600080fd5b90600052602060002001600091509150505481565b60006060600061134d61118f565b9050600081511192508060405160200161136791906137d6565b6040516020818303038152906040529150509250929050565b6001602052816000526040600020818154811061139c57600080fd5b6000918252602090912060049091020180546001820154600283015460038401805460ff851697506101009094046001600160a01b03169550919390929091906113e590613dfa565b80601f016020809104026020016040519081016040528092919081815260200182805461141190613dfa565b801561145e5780601f106114335761010080835404028352916020019161145e565b820191906000526020600020905b81548152906001019060200180831161144157829003601f168201915b5050505050905085565b6114d26040518061014001604052806000815260200160006001600160a01b0316815260200160006001600160a01b031681526020016000815260200160008152602001600081526020016000815260200160008152602001600015158152602001606081525090565b6000828152600560208181526040928390208351610140810185528154815260018201546001600160a01b039081169382019390935260028201549092169382019390935260038301546060820152600483015460808201529082015460a0820152600682015460c0820152600782015460e0820152600882015460ff1615156101008201526009820180549192916101208401919061157190613dfa565b80601f016020809104026020016040519081016040528092919081815260200182805461159d90613dfa565b80156115ea5780601f106115bf576101008083540402835291602001916115ea565b820191906000526020600020905b8154815290600101906020018083116115cd57829003601f168201915b5050505050815250509050919050565b6001600160a01b0381166000908152600160209081526040808320805482518185028101850190935280835260609492939192909184015b8282101561174f576000848152602090206040805160a08101909152600484029091018054829060ff16600b81111561166d5761166d613a23565b600b81111561167e5761167e613a23565b8152815461010090046001600160a01b0316602082015260018201546040820152600282015460608201526003820180546080909201916116be90613dfa565b80601f01602080910402602001604051908101604052809291908181526020018280546116ea90613dfa565b80156117375780601f1061170c57610100808354040283529160200191611737565b820191906000526020600020905b81548152906001019060200180831161171a57829003601f168201915b50505050508152505081526020019060010190611632565b505050509050919050565b6001600160a01b0385166117a45760405162461bcd60e51b8152602060048201526011602482015270125b9d985b1a59081c9958da5c1a595b9d607a1b6044820152606401610955565b600084116117f45760405162461bcd60e51b815260206004820152601d60248201527f416d6f756e74206d7573742062652067726561746572207468616e20300000006044820152606401610955565b610e108310156118165760405162461bcd60e51b815260040161095590614017565b336000908152602081905260409020548411156118455760405162461bcd60e51b815260040161095590613dcc565b600780546000918261185683613ffe565b919050559050604051806101400160405280828152602001336001600160a01b03168152602001876001600160a01b0316815260200186815260200185815260200185426118a49190613db9565b8152602080820186905260006040808401829052600160608086018290526080958601899052878452600580865293839020875181559487015191850180546001600160a01b03199081166001600160a01b039485161790915592870151600286018054909416921691909117909155840151600383015591830151600482015560a08301519181019190915560c0820151600682015560e0820151600782015561010082015160088201805460ff191691151591909117905561012082015160098201906119739082613e83565b505033600081815260066020908152604080832080546001818101835591855283852001879055938352929052819020815160a0810190925291508060098152602001886001600160a01b031681526020018781526020014281526020016119da8461366c565b6040516020016119ea9190614058565b60408051601f198184030181529190529052815460018181018455600093845260209093208251600490920201805492939092839160ff199091169083600b811115611a3857611a38613a23565b0217905550602082015181546001600160a01b0390911661010002610100600160a81b0319909116178155604082015160018201556060820151600282015560808201516003820190611a8b9082613e83565b505060408051878152602081018790526001600160a01b0389169250339184917fb272b7ba744e64ed131e7fd6a1abcb3ff4d3541979a489a829f325c0a243ad09910160405180910390a4505050505050565b60008311611b2e5760405162461bcd60e51b815260206004820152601760248201527f4d7573742070726f7669646520636f6c6c61746572616c0000000000000000006044820152606401610955565b60008211611b7e5760405162461bcd60e51b815260206004820152601860248201527f4d7573742073706563696679206c6f616e20616d6f756e7400000000000000006044820152606401610955565b60008111611bce5760405162461bcd60e51b815260206004820152601a60248201527f4d7573742073706563696679206c6f616e206475726174696f6e0000000000006044820152606401610955565b3360009081526002602052604090208054841115611c2e5760405162461bcd60e51b815260206004820152601f60248201527f496e73756666696369656e7420426974636f696e20636f6c6c61746572616c006044820152606401610955565b60006305f5e100611c40866032613d80565b611c5290670de0b6b3a7640000613d80565b611c5c9190613d97565b9050600084611c6c836064613d80565b611c769190613d97565b905060c8811015611cc95760405162461bcd60e51b815260206004820152601d60248201527f496e73756666696369656e7420636f6c6c61746572616c20726174696f0000006044820152606401610955565b6008805460009182611cda83613ffe565b919050559050604051806101200160405280828152602001336001600160a01b031681526020018881526020018781526020016101f481526020014281526020018662015180611d2a9190613d80565b611d349042613db9565b815260016020808301829052600060409384018190528581526003808352848220865181559286015183850180546001600160a01b0319166001600160a01b039092169190911790559385015160028301556060850151938201939093556080840151600482015560a0840151600582015560c0840151600682015560e0840151600790910180546101009586015161ffff1990911692151561ff00191692909217911515909402179092559085018054889290611df3908490613db9565b90915550503360008181526004602090815260408083208054600181018255908452828420018590559282528190529081208054889290611e35908490613db9565b90915550503360009081526001602052604090819020815160a081019092529080600481526000602082015260408101899052426060820152608001611e7a8461366c565b604051602001611e8a919061409d565b60408051601f198184030181529190529052815460018181018455600093845260209093208251600490920201805492939092839160ff199091169083600b811115611ed857611ed8613a23565b0217905550602082015181546001600160a01b0390911661010002610100600160a81b0319909116178155604082015160018201556060820151600282015560808201516003820190611f2b9082613e83565b5050604080518981526020810189905233925083917f3373919ad665425d2cddb4072830e5935b6ee308440fa99b23383648da473bc0910160405180910390a350505050505050565b600081815260056020526040902060018101546001600160a01b03163314611fd75760405162461bcd60e51b81526020600482015260166024820152752737ba103a3432903830bcb6b2b73a1039b2b73232b960511b6044820152606401610955565b600881015460ff16611ffb5760405162461bcd60e51b8152600401610955906140d8565b60088101805460ff191690553360009081526001602052604090819020815160a081019092529080600b815260028401546001600160a01b03166020820152600060408201524260608201526080016120538561366c565b6040516020016120639190614107565b60408051601f198184030181529190529052815460018181018455600093845260209093208251600490920201805492939092839160ff199091169083600b8111156120b1576120b1613a23565b0217905550602082015181546001600160a01b0390911661010002610100600160a81b03199091161781556040820151600182015560608201516002820155608082015160038201906121049082613e83565b505060405133915083907ff2be3c818ffba8fc7e59f01d543a5512a1cdefc20f65f3629b3ff1b3346df8cf90600090a35050565b6001600160a01b0382166121825760405162461bcd60e51b8152602060048201526011602482015270125b9d985b1a59081c9958da5c1a595b9d607a1b6044820152606401610955565b600081116121c75760405162461bcd60e51b81526020600482015260126024820152710416d6f756e74206d757374206265203e20360741b6044820152606401610955565b336000908152602081905260409020548111156121f65760405162461bcd60e51b815260040161095590613dcc565b3360009081526020819052604081208054839290612215908490613d67565b90915550506040516001600160a01b0383169082156108fc029083906000818181858888f19350505050158015612250573d6000803e3d6000fd5b50336000908152600160208181526040808420815160a081018352600281526001600160a01b038816818501528083018790524260608201528251808401909352601083526f11551208151c985b9cd9995c8813dd5d60821b8385015260808101929092528054808501825590855291909320835160049092020180549092839160ff19169083600b8111156122e8576122e8613a23565b0217905550602082015181546001600160a01b0390911661010002610100600160a81b031990911617815560408201516001820155606082015160028201556080820151600382019061233b9082613e83565b5050506001600160a01b0382166000908152600160208181526040808420815160a0810183526003815233818501528083018790524260608201528251808401909352600f83526e22aa24102a3930b739b332b91024b760891b8385015260808101929092528054808501825590855291909320835160049092020180549092839160ff19169083600b8111156123d4576123d4613a23565b0217905550602082015181546001600160a01b0390911661010002610100600160a81b03199091161781556040820151600182015560608201516002820155608082015160038201906124279082613e83565b50506040518281526001600160a01b038416915033907fd1ba4ac2e2a11b5101f6cb4d978f514a155b421e8ec396d2d9abaf0bb02917ee9060200160405180910390a35050565b600081815260036020526040902060018101546001600160a01b031633146124d05760405162461bcd60e51b81526020600482015260156024820152742737ba103a3432903637b0b7103137b93937bbb2b960591b6044820152606401610955565b600781015460ff166124f45760405162461bcd60e51b815260040161095590613d25565b6007810154610100900460ff16156125435760405162461bcd60e51b8152602060048201526012602482015271131bd85b881a5cc81b1a5c5d5a59185d195960721b6044820152606401610955565b80600301543410156125975760405162461bcd60e51b815260206004820152601d60248201527f496e73756666696369656e742072657061796d656e7420616d6f756e740000006044820152606401610955565b60008160050154426125a99190613d67565b9050600064496cebb80082846004015485600301546125c89190613d80565b6125d29190613d80565b6125dc9190613d97565b905060008184600301546125f09190613db9565b9050803410156126545760405162461bcd60e51b815260206004820152602960248201527f496e73756666696369656e742072657061796d656e7420696e636c7564696e67604482015268081a5b9d195c995cdd60ba1b6064820152608401610955565b60078401805460ff1916905533600090815260026020526040812060038601546001820180549293919290919061268c908490613d67565b90915550503360009081526001602052604090819020815160a0810190925290806005815260006020820152604081018590524260608201526080016126d18961366c565b6040516020016126e19190614157565b60408051601f198184030181529190529052815460018181018455600093845260209093208251600490920201805492939092839160ff199091169083600b81111561272f5761272f613a23565b0217905550602082015181546001600160a01b0390911661010002610100600160a81b03199091161781556040820151600182015560608201516002820155608082015160038201906127829082613e83565b505060405183815233915087907f512d3e65b3e58c2187bb1872aa435dba5bd09c1c03823ba56ab70aac411e4a219060200160405180910390a3505050505050565b6000818152600360205260409020600781015460ff166127f65760405162461bcd60e51b815260040161095590613d25565b6007810154610100900460ff16156128505760405162461bcd60e51b815260206004820152601760248201527f4c6f616e20616c7265616479206c6971756964617465640000000000000000006044820152606401610955565b6006810154421160006096612864856109be565b10905081806128705750805b6128cc5760405162461bcd60e51b815260206004820152602760248201527f4c6f616e20646f6573206e6f74206d656574206c69717569646174696f6e20636044820152667269746572696160c81b6064820152608401610955565b60078301805461ffff191661010017905560018301546001600160a01b03166000908152600260208190526040822090850154815491929091839190612913908490613d67565b90915550506003840154600182018054600090612931908490613d67565b909155505060028401546009805460009061294d908490613d67565b90915550506001848101546001600160a01b0316600090815260209182526040808220815160a081018352600681529384019290925260028701549083015242606083015290608081016129a08861366c565b6040516020016129b09190614191565b60408051601f198184030181529190529052815460018181018455600093845260209093208251600490920201805492939092839160ff199091169083600b8111156129fe576129fe613a23565b0217905550602082015181546001600160a01b0390911661010002610100600160a81b0319909116178155604082015160018201556060820151600282015560808201516003820190612a519082613e83565b505050600184015460028501546040519081526001600160a01b039091169086907f0256bdf47e9aff5784070d6cab332d79f81fc6b8c8ed875565982a423a389e3a9060200160405180910390a35050505050565b60003411612af65760405162461bcd60e51b815260206004820152601860248201527f4d757374206465706f736974206d6f7265207468616e203000000000000000006044820152606401610955565b3360009081526020819052604081208054349290612b15908490613db9565b9091555050336000908152600160208181526040808420815160a08101835285815280840186905234818401524260608201528251808401909352600b8084526a1155120811195c1bdcda5d60aa1b848601526080820193909352815480860183559186529290942082516004909502018054929490939092849260ff1990911691908490811115612ba957612ba9613a23565b0217905550602082015181546001600160a01b0390911661010002610100600160a81b0319909116178155604082015160018201556060820151600282015560808201516003820190612bfc9082613e83565b50503360008181526020818152604091829020548251348152918201529192507f73a19dd210f1a7f902193214c0ee91dd35ee5b4d920cba8d519eca65a7b488ca910160405180910390a2565b612c6d60405180606001604052806000815260200160008152602001600081525090565b506001600160a01b0316600090815260026020818152604092839020835160608101855281548152600182015492810192909252909101549181019190915290565b6004602052816000526040600020818154811061132a57600080fd5b600083815260056020526040902060018101546001600160a01b03163314612d2e5760405162461bcd60e51b81526020600482015260166024820152752737ba103a3432903830bcb6b2b73a1039b2b73232b960511b6044820152606401610955565b600881015460ff16612d525760405162461bcd60e51b8152600401610955906140d8565b60008311612da25760405162461bcd60e51b815260206004820152601d60248201527f416d6f756e74206d7573742062652067726561746572207468616e20300000006044820152606401610955565b610e10821015612dc45760405162461bcd60e51b815260040161095590614017565b60038101839055600481018290556040805184815260208101849052339186917fb3e111d1f4170fe114a3d9325068675114d42faec78588736634785da13a22a5910160405180910390a350505050565b60008111612e5b5760405162461bcd60e51b8152602060048201526013602482015272135d5cdd081859190818dbdb1b185d195c985b606a1b6044820152606401610955565b336000908152600260205260408120805490918391839190612e7e908490613db9565b925050819055508160096000828254612e979190613db9565b9091555050336000908152600160208181526040808420815160a081018352600781528084018690528083018890524260608201528251808401909352601883527f426974636f696e20436f6c6c61746572616c20416464656400000000000000008385015260808101929092528054808501825590855291909320835160049092020180549092839160ff19169083600b811115612f3857612f38613a23565b0217905550602082015181546001600160a01b0390911661010002610100600160a81b0319909116178155604082015160018201556060820151600282015560808201516003820190612f8b9082613e83565b50506040518381523391507fb34ac71269cf4c90111a8f7e5f57d30b4e42dacc347a0a8f21efea0ed4c0c8cf9060200161109c565b6000818152600560205260409020600881015460ff16612ff25760405162461bcd60e51b8152600401610955906140d8565b80600501544210156130465760405162461bcd60e51b815260206004820152601860248201527f5061796d656e742074696d65206e6f74207265616368656400000000000000006044820152606401610955565b600381015460018201546001600160a01b031660009081526020819052604090205410156130865760405162461bcd60e51b815260040161095590613dcc565b6006810154156130df5780600601548160070154106130df5760405162461bcd60e51b815260206004820152601560248201527414185e5b595b9d081b1a5b5a5d081c995858da1959605a1b6044820152606401610955565b600381015460018201546001600160a01b031660009081526020819052604081208054909190613110908490613d67565b9091555050600381015460028201546001600160a01b031660009081526020819052604081208054909190613146908490613db9565b909155505060078101805490600061315d83613ffe565b909155505060048101546131719042613db9565b600582015560068101541580159061319157508060060154816007015410155b156131a35760088101805460ff191690555b6001818101546001600160a01b03166000908152602091909152604090819020815160a081019092529080600a815260028401546001600160a01b03166020820152600384015460408201524260608201526080016132018561366c565b60405160200161321191906141cf565b60408051601f198184030181529190529052815460018181018455600093845260209093208251600490920201805492939092839160ff199091169083600b81111561325f5761325f613a23565b0217905550602082015181546001600160a01b0390911661010002610100600160a81b03199091161781556040820151600182015560608201516002820155608082015160038201906132b29082613e83565b50505060028101546001600160a01b031660009081526001602052604090819020815160a0810190925290806003815260018401546001600160a01b03166020820152600384015460408201524260608201526080016133118561366c565b604051602001613321919061421e565b60408051601f198184030181529190529052815460018181018455600093845260209093208251600490920201805492939092839160ff199091169083600b81111561336f5761336f613a23565b0217905550602082015181546001600160a01b0390911661010002610100600160a81b03199091161781556040820151600182015560608201516002820155608082015160038201906133c29082613e83565b5050506002810154600182015460038301546040519081526001600160a01b03928316929091169084907fd83b8695535cf537e03c3a27451908aa08781afc5439a3193e1691a142d3728e9060200160405180910390a45050565b6000818152600560209081526040808320600381015460018201546001600160a01b031685529284905290832080549193909161345b908490613d67565b9091555050600381015460028201546001600160a01b031660009081526020819052604081208054909190613491908490613db9565b90915550506007810180549060006134a883613ffe565b909155505060048101546134bc9042613db9565b60058201556006810154158015906134dc57508060060154816007015410155b156134ee5760088101805460ff191690555b6001818101546001600160a01b03166000908152602091909152604090819020815160a081019092529080600a815260028401546001600160a01b031660208201526003840154604082015242606082015260800161354c8561366c565b60405160200161355c9190614260565b60408051601f198184030181529190529052815460018181018455600093845260209093208251600490920201805492939092839160ff199091169083600b8111156135aa576135aa613a23565b0217905550602082015181546001600160a01b0390911661010002610100600160a81b03199091161781556040820151600182015560608201516002820155608082015160038201906135fd9082613e83565b50505060028101546001600160a01b031660009081526001602052604090819020815160a0810190925290806003815260018401546001600160a01b031660208201526003840154604082015242606082015260800161365c8561366c565b60405160200161332191906142a2565b6060816000036136935750506040805180820190915260018152600360fc1b602082015290565b8160005b81156136bd57806136a781613ffe565b91506136b69050600a83613d97565b9150613697565b60008167ffffffffffffffff8111156136d8576136d8613bea565b6040519080825280601f01601f191660200182016040528015613702576020820181803683370190505b509050815b851561378f57613718600182613d67565b90506000613727600a88613d97565b61373290600a613d80565b61373c9088613d67565b6137479060306142e4565b905060008160f81b90508084848151811061376457613764613fe8565b60200101906001600160f81b031916908160001a905350613786600a89613d97565b97505050613707565b50949350505050565b80356001600160a01b03811681146137af57600080fd5b919050565b6000602082840312156137c657600080fd5b6137cf82613798565b9392505050565b602080825282518282018190526000918401906040840190835b8181101561380e5783518352602093840193909201916001016137f0565b509095945050505050565b60006020828403121561382b57600080fd5b5035919050565b60005b8381101561384d578181015183820152602001613835565b50506000910152565b6000815180845261386e816020860160208601613832565b601f01601f19169290920160200192915050565b8a815260018060a01b038a16602082015260018060a01b03891660408201528760608201528660808201528560a08201528460c08201528360e082015282151561010082015261014061012082015260006138e1610140830184613856565b9c9b505050505050505050505050565b6000806020838503121561390457600080fd5b823567ffffffffffffffff81111561391b57600080fd5b8301601f8101851361392c57600080fd5b803567ffffffffffffffff81111561394357600080fd5b85602082840101111561395557600080fd5b6020919091019590945092505050565b6000610120820190508251825260018060a01b03602084015116602083015260408301516040830152606083015160608301526080830151608083015260a083015160a083015260c083015160c083015260e0830151151560e08301526101008301516139d761010084018215159052565b5092915050565b600080604083850312156139f157600080fd5b6139fa83613798565b946020939093013593505050565b8215158152604060208201526000610a326040830184613856565b634e487b7160e01b600052602160045260246000fd5b600c8110613a5757634e487b7160e01b600052602160045260246000fd5b9052565b613a658187613a39565b60018060a01b038516602082015283604082015282606082015260a060808201526000613a9560a0830184613856565b979650505050505050565b602081528151602082015260006020830151613ac760408401826001600160a01b03169052565b5060408301516001600160a01b03811660608401525060608301516080830152608083015160a083015260a083015160c083015260c083015160e083015260e0830151610100830152610100830151613b2561012084018215159052565b5061012083015161014080840152610a32610160840182613856565b6000602082016020835280845180835260408501915060408160051b86010192506020860160005b82811015613bde57603f198786030184528151613b87868251613a39565b60018060a01b03602082015116602087015260408101516040870152606081015160608701526080810151905060a06080870152613bc860a0870182613856565b9550506020938401939190910190600101613b69565b50929695505050505050565b634e487b7160e01b600052604160045260246000fd5b604051601f8201601f1916810167ffffffffffffffff81118282101715613c2957613c29613bea565b604052919050565b600080600080600060a08688031215613c4957600080fd5b613c5286613798565b9450602086013593506040860135925060608601359150608086013567ffffffffffffffff811115613c8357600080fd5b8601601f81018813613c9457600080fd5b803567ffffffffffffffff811115613cae57613cae613bea565b613cc1601f8201601f1916602001613c00565b818152896020838501011115613cd657600080fd5b816020840160208301376000602083830101528093505050509295509295909350565b600080600060608486031215613d0e57600080fd5b505081359360208301359350604090920135919050565b6020808252601290820152714c6f616e206973206e6f742061637469766560701b604082015260600190565b634e487b7160e01b600052601160045260246000fd5b81810381811115613d7a57613d7a613d51565b92915050565b8082028115828204841417613d7a57613d7a613d51565b600082613db457634e487b7160e01b600052601260045260246000fd5b500490565b80820180821115613d7a57613d7a613d51565b602080825260149082015273496e73756666696369656e742062616c616e636560601b604082015260600190565b600181811c90821680613e0e57607f821691505b602082108103613e2e57634e487b7160e01b600052602260045260246000fd5b50919050565b601f821115613e7e57806000526020600020601f840160051c81016020851015613e5b5750805b601f840160051c820191505b81811015613e7b5760008155600101613e67565b50505b505050565b815167ffffffffffffffff811115613e9d57613e9d613bea565b613eb181613eab8454613dfa565b84613e34565b6020601f821160018114613ee55760008315613ecd5750848201515b600019600385901b1c1916600184901b178455613e7b565b600084815260208120601f198516915b82811015613f155787850151825560209485019460019092019101613ef5565b5084821015613f335786840151600019600387901b60f8161c191681555b50505050600190811b01905550565b600060208284031215613f5457600080fd5b813567ffffffffffffffff811115613f6b57600080fd5b8201601f81018413613f7c57600080fd5b803567ffffffffffffffff811115613f9657613f96613bea565b8060051b613fa660208201613c00565b91825260208184018101929081019087841115613fc257600080fd5b6020850194505b83851015613a9557843580835260209586019590935090910190613fc9565b634e487b7160e01b600052603260045260246000fd5b60006001820161401057614010613d51565b5060010190565b60208082526021908201527f4672657175656e6379206d757374206265206174206c65617374203120686f756040820152603960f91b606082015260800190565b7f5363686564756c6564205061796d656e742043726561746564202d2049443a20815260008251614090816020850160208701613832565b9190910160200192915050565b7202637b0b71021b932b0ba32b210169024a21d1606d1b8152600082516140cb816013850160208701613832565b9190910160130192915050565b6020808252601590820152745061796d656e74206973206e6f742061637469766560581b604082015260600190565b7f5363686564756c6564205061796d656e742043616e63656c6c6564202d20494481526101d160f51b60208201526000825161414a816022850160208701613832565b9190910160220192915050565b7102637b0b7102932b830b4b210169024a21d160751b815260008251614184816012850160208701613832565b9190910160120192915050565b7502637b0b7102634b8bab4b230ba32b210169024a21d160551b8152600082516141c2816016850160208701613832565b9190910160160192915050565b7f5363686564756c6564205061796d656e74204578656375746564202d2049443a8152600160fd1b602082015260008251614211816021850160208701613832565b9190910160210192915050565b7f5363686564756c6564205061796d656e74205265636569766564202d2049443a8152600160fd1b602082015260008251614211816021850160208701613832565b7f4175746f6d61746564205061796d656e74204578656375746564202d2049443a8152600160fd1b602082015260008251614211816021850160208701613832565b7f4175746f6d61746564205061796d656e74205265636569766564202d2049443a8152600160fd1b602082015260008251614211816021850160208701613832565b60ff8181168382160190811115613d7a57613d7a613d5156fea2646970667358221220fae61f2eb8e929e7b89f32b9a0f586341c134750bb619b28f3b8c6ecb1aff13764736f6c634300081c0033",
  "linkReferences": {},
  "deployedLinkReferences": {}
}